:020000040000fa
:10000000f07f00208d3d0300cb8f0300d18f0300d4
:1000100000000000000000000000000000000000e0
:100020000000000000000000000000002712010096
:10003000000000000000000027120100271201004c
:1000400027120100271201002712010027120100c8
:10005000fdcf020027120100e1b7020027120100c4
:1000600027120100e9bb010027120100271201003d
:1000700051a3010055ec01000d17030027120100e8
:100080002712010027120100915d030027120100d1
:1000900027120100000000000000000027120100ec
:1000a0002712010027120100271201002712010068
:020000040000fa
:1000b000f8b5c046f8bc08bc9e467047814d0300a9
:1000c000f8b5c046f8bc08bc9e467047594d0300c1
:020000040000fa
:0800d00008030200010000001a
:020000040000fa
:1000d80082b0f0b5c64600b5e04ca54404af7861df
:1000e800df48cc24a400a446bc44604401604260bc
:1000f8000422d02189008c4608218846b844c4448b
:10010800624413607b69002b03d138f051fb030074
:100118009847d44bcc2292009446bc4463447a69f5
:1001280003ca03c30123c72189007a181360ce4b81
:10013800fb1800221a707b181b68002b01da0023b9
:10014800c2e0ca4bcc2080003a18d118c54b3a18e7
:10015800d2180b0012ca12c3c44bcc229200944688
:10016800bc4463441b68c524a4003a191360c04bff
:100178003a18d118bb4b3a18d2180b0022ca22c31e
:10018800bb4bcc2292009446bc4463445b68c422b7
:100198009200ba181360b74bfb1800221a70b64bbe
:1001a800cc2292009446bc44634400221a605a60f0
:1001b800b24b3a18d118b04b3a18d2180b0003caf0
:1001c80003c3ae4bcc2292009446bc4463441b68e4
:1001d800c22189007a181360a34bfb181b78002be7
:1001e8001cd03b191b68002b05d03b191a687b18db
:1001f8001b689a4207d1c4239b00fb181b685a420c
:100208005341dbb206e0c4239b00fb181b68db43a9
:10021800db0fdbb2974aba1813701de0c5229200b3
:10022800bb181b68002b0fd0bb181a68c2239b0091
:10023800fb181b689a4207d0c4239b00fb181b6855
:10024800002b01db012200e000228a4bfb181a7008
:100258001a7801210a401a7001235b42c1229200d8
:10026800b9180b60834bfb181b78002b0fd0bb18f9
:100278001a68c5239b00fb181b68d31a1a00c423ed
:100288009b00fb181b689a4201d3012200e0002260
:1002980078483b181a701a7801210a401a703b18de
:1002a8001b78002b0bd0c7239b00fb181a68c423ac
:1002b8009b00fb181b689a4201dc012300e0002325
:1002c8001a1c01231340dbb201225340dbb2002b7e
:1002d80003d038f06dfa03009847694bcc2292009e
:1002e800b918c9185e4bba18d2180b0003ca03c351
:1002f8000023c02189007a181360624bfb18002282
:100308001a707b181b68002b01da0023e3e05e4bb0
:10031800cc2080003a18d118594b3a18d2180b0043
:1003280012ca12c3584bcc2292009446bc44634470
:100338001b68be24a4003a191360544b3a18d1180c
:100348004f4b3a18d2180b0022ca22c34f4bcc226b
:1003580092009446bc4463445b68bd229200ba187c
:1003680013604b4bfb1800221a704a4bcc229200a8
:100378009446bc44634400221a605a60464b3a18bb
:10038800d118444b3a18d2180b0003ca03c3424b86
:10039800cc2292009446bc4463441b68bb2189006c
:1003a8007a181360374bfb181b78002b1cd03b19ad
:1003b8001b68002b05d03b191a687b181b689a42ea
:1003c80007d1bd239b00fb181b685a425341dbb27f
:1003d80006e0bd239b00fb181b68db43db0fdbb289
:1003e8002b4aba1813701de0be229200bb181b6876
:1003f800002b0fd0bb181a68bb239b00fb181b6887
:100408009a4207d0bd239b00fb181b68002b01db19
:10041800012200e000221e4bfb181a701a780121f5
:100428000a401a7001235b42ba229200b9180b6085
:10043800174bfb181b78002b30d0bb181a68be234b
:100448009b00fb181b68d31a1a00bd239b00fb18de
:100458001b689a4222d3012221e0c046c0fcffff5c
:10046800dcfcffff98fdffff1b03000090fdffff72
:1004780088fdffff0f0300002cfeffff80fdffff3c
:10048800b8fdffffff020000b0fdffffa8fdffff62
:10049800f302000034feffffa0fdffff0022a84882
:1004a8003b181a701a7801210a401a703b181b78f9
:1004b800002b0bd0c0239b00fb181a68bd239b00a0
:1004c800fb181b689a4201dc012300e000231a1c78
:1004d80001231340dbb201225340dbb2002b03d0cf
:1004e80038f066f903009847964bcc229200ba1868
:1004f800d1180423d022920008208446bc446244c8
:10050800d2180b0003ca03c30023b92189007a1843
:1005180013608d4bfb1800221a707b181b68002b88
:1005280001da0023c2e0894bcc2080003a18d118a8
:10053800844b3a18d2180b0012ca12c3834bcc2230
:1005480092009446bc4463441b68b724a4003a193b
:1005580013607f4b3a18d1187a4b3a18d2180b000f
:1005680022ca22c37a4bcc2292009446bc446344ec
:100578005b68b6229200ba181360764bfb1800220b
:100588001a70754bcc2292009446bc4463440022f6
:100598001a605a60714b3a18d1186f4b3a18d21832
:1005a8000b0003ca03c36d4bcc2292009446bc4493
:1005b80063441b68b42189007a181360624bfb18e6
:1005c8001b78002b1cd03b191b68002b05d03b194e
:1005d8001a687b181b689a4207d1b6239b00fb1840
:1005e8001b685a425341dbb206e0b6239b00fb1856
:1005f8001b68db43db0fdbb2564aba1813701de0e9
:10060800b7229200bb181b68002b0fd0bb181a68c2
:10061800b4239b00fb181b689a4207d0b6239b00a3
:10062800fb181b68002b01db012200e00022494b6c
:10063800fb181a701a7801210a401a7001235b42cc
:10064800b3229200b9180b60424bfb181b78002ba1
:100658000fd0bb181a68b7239b00fb181b68d31a66
:100668001a00b6239b00fb181b689a4201d301228b
:1006780000e0002237483b181a701a7801210a4016
:100688001a703b181b78002b0bd0b9239b00fb1862
:100698001a68b6239b00fb181b689a4201dc0123e9
:1006a80000e000231a1c01231340dbb2012253404f
:1006b800dbb2002b03d038f07bf803009847d32334
:1006c8009b0008229446bc4463441b68002b03d15a
:1006d80038f06ef803009847214bcc2292009446dc
:1006e800bc4463441f4a03ca03c31f4bcc24a40061
:1006f8003a19d0181a4b3a19d21817230093002325
:100708001168526820f0c6fc174bcc229200944620
:10071800bc446344154a391989181a685b68086823
:10072800496829f061f80300cb229200b9180b60e0
:10073800bb181b68002b1dd00d4b01f01df8c046df
:10074800f3020000d8fdffffe3020000d0fdffff29
:10075800c8fdffffd70200003cfeffffc0fdffff02
:10076800e0fdffff3c99010014feffffdcfcffffea
:1007780001000580e14bcc2292009446bc446344be
:10078800df4819685a6820f0f7fa0423d02292004b
:10079800944608229046b844c4446344d94819682a
:1007a8005a6820f0e9fad84bcc24a4003a19d11899
:1007b800d64b3a19d2180b0003ca03c3d24bcc222a
:1007c80092009446bc4463445968d14b3a19d018f6
:1007d800ca4b3a19d2180b001168526835f0cefc92
:1007e80000239c2149007a181360ca4bcc2292003e
:1007f8009446bc446344c84a21ca21c3c74b3a192a
:10080800d418c44bcc2292009446bc446344c04ada
:10081800cc2080008446bc446244791802919e2111
:100828004900791801916946586808601b68116881
:100838005268200010f0fcfad3239b00082294464b
:10084800bc4463441b6808331a00b44bcc218900ac
:100858008c46bc4463441868596818f0e7fd0300e7
:10086800ca229200b9180b60bb181b68b221890014
:10087800781803607b181b68db0fdbb2002b03d0f2
:10088800bb181b6800f078ffa54bcc229200944659
:10089800bc446344a34a03ca03c3a14bcc229200bd
:1008a8009446bc4463449a4acc24a4003919891854
:1008b8001a685b680868496828f096ff0300cb252a
:1008c800ad007a1913607b191b68013300d17ee0f3
:1008d800954b20003a18d118914b3a18d2180b00b2
:1008e80012ca12c3904bcc2292009446bc44634473
:1008f8005a687b191b68d118854b0600ba19d41899
:100908003800834bba19d2180b001168526835f0b9
:1009180035fc864bba19d218230003ca03c3844b8b
:10092800cc2292009446bc446344824a03ca03c35f
:100938007a4bba19d4183d007d4bcc2292009446cc
:10094800bc446344724acc2189008c46bc4462444e
:100958009c214900791802919e214900791801913a
:100968006946586808601b6811685268280010f0ca
:100978005ffa6e4bba19d218230003ca03c3d323f4
:100988009b0008229446bc4463441b680c331a003d
:10099800624bcc2189008c46bc4463441868596872
:1009a80018f044fd0300c9229200b9180b60bb1867
:1009b8001b68b1218900781803607b181b68db0f5e
:1009c800dbb2002b0cd0bb181b6800f0d5fed3237c
:1009d8009b0008229446bc4463441b680022da60ea
:1009e800554bcc2080003a18d1180423d02292000d
:1009f8000824a446bc446244d2180b0012ca12c38d
:100a0800d3239b0008229446bc4463441b68af224e
:100a18009200ba181360484b3a18d2184823f818ad
:100a28000023116852682bf0effb0300ae229200fe
:100a3800b9180b60bb181b68ad21890078180360d2
:100a48007b181b68db0fdbb2002b03d0bb181b68bd
:100a580000f07dfe4823fb18180023f0c7fa0300b6
:100a6800ac229200b9180b60bb181b68ab21890037
:100a7800781803607b181b68db0fdbb2002b03d0f0
:100a8800bb181b6800f063fe2c4bcc2292009446e6
:100a9800bc4463441b7a012b02d0294b00f057fe5b
:100aa800284bcc2292009446bc446344180030235f
:100ab8001a00002138f05ef8af239b00fb181b6872
:100ac800204acc2189008c46bc446244103313caa6
:100ad80013c313ca13c313ca13c313ca13c31a4bba
:100ae800fb1800221a70194bfb1800221a70184bb9
:100af800fb1800221a7000f0d5fdc046dcfcffff91
:100b08000100060002000600e8fdffff14feffffdb
:100b18000cfeffff1cfeffffa899010000feffff6f
:100b2800f8fdffffc0990100f0fdffffd0fcffffbb
:100b380024feffffcc99010078fdffff18fdffffa1
:100b480005000180e8fcffffab020000aa020000dc
:100b5800a9020000db4bcc2292009446bc446344bb
:100b6800d94a03ca03c3d74bcc2292009446bc444b
:100b780063444824381919685a680ff05bff031e4c
:100b880040d03b19180023f031fa0300a922920043
:100b9800b9180b60bb181b68a82189007818036076
:100ba8007b181b68db0fdbb2002b03d0bb181b685c
:100bb80000f0cdfdc54bcc2292009446bc44634462
:100bc8001b7a062b02d0c24b00f0c1fdaf239b005d
:100bd800fb181968bd4bcc229200ba18d2180b002a
:100be80003ca03c3bb4bfb1801221a70ba4abb18cd
:100bf800ba1812781a70b94abb18ba1812781a704b
:100c080000f050fdb64bcc2292009446bc4463449d
:100c1800b44a03ca03c3b24bcc2292009446bc44e4
:100c280063444824381919685a680ff003ff031ef3
:100c380059d03b19180023f0d9f90300a7229200d4
:100c4800b9180b60bb181b68a621890078180360c7
:100c58007b181b68db0fdbb2002b03d0bb181b68ab
:100c680000f075fd994bcc2292009446bc44634435
:100c78001b7a062b02d0964b00f069fdaf239b0030
:100c8800fb181b680a331a00904bcc2189008c464c
:100c9800bc4463441868596807f022fb0300a52286
:100ca8009200b9180b60bb181b68a421890078183a
:100cb80003607b181b68db0fdbb2002b03d0bb186b
:100cc8001b6800f044fd844bfb1801221a70814a0e
:100cd800bb18ba1812781a70804abb18ba1812785a
:100ce8001a7000f0dffc804bcc2292009446bc4482
:100cf80063447e4a03ca03c37b4bcc2292009446ca
:100d0800bc4463444824381919685a680ff092fea5
:100d1800031e00d1dce23b19180023f067f9030039
:100d2800a3229200b9180b60bb181b68a221890086
:100d3800781803607b181b68db0fdbb2002b03d02d
:100d4800bb181b6800f003fdaf239b00fb181b6852
:100d580010334822ba18a121890078180260a0220d
:100d68009200ba1813607b181b681b7a012b01d0fc
:100d78005f4b72e25f4bfb1800221a705e4bfb1848
:100d880000221a7025e2a124a4003b1918685b4bc5
:100d9800cc2292009446bc446344594a22ca22c3d6
:100da800564bcc2292009446bc44634419685a6856
:100db8000ff040fe031e35d03b191b68180023f0c6
:100dc80015f903009e229200b9180b60bb181b6826
:100dd8009d218900781803607b181b68db0fdbb244
:100de800002b02d0bb181b6837e2a1239b00fb181d
:100df8001b681b7a062b01d0354b2ee2a0239b00e3
:100e0800fb181b68a1229200ba18126803ca03c310
:100e1800384bfb1801221a70374abb18ba181278d7
:100e28001a70d6e1a124a4003b191868354bcc22ce
:100e380092009446bc446344334a22ca22c3314bcd
:100e4800cc2292009446bc44634419685a680ff057
:100e5800f1fd031e5ad03b191b68180023f0c6f891
:100e680003009c229200b9180b60bb181b689b21d9
:100e78008900781803607b181b68db0fdbb2002b36
:100e880002d0bb181b68e8e1a1239b00fb181b6874
:100e98001b7a062b01d00e4bdfe1a0239b00fb1829
:100ea8001b68a1229200ba181268083303ca03c348
:100eb800114bfb1801221a700e4abb18ba18127887
:100ec8001a7086e19cfeffffe099010018fdffff04
:100ed80004000180ab020000aa020000a902000081
:100ee80094fefffff09901008cfeffff0c9a0100b1
:100ef800050001807f0200007e0200004cfeffff1b
:100f0800209a010054feffff349a0100a124a40096
:100f18003b191868e24bcc2292009446bc446344c7
:100f2800e04a22ca22c3de4bcc2292009446bc443b
:100f3800634419685a680ff07dfd031e37d03b19ca
:100f48001b68180023f052f803009a229200b9187f
:100f58000b60bb181b6899218900781803607b18ff
:100f68001b68db0fdbb2002b02d0bb181b6874e1d7
:100f7800a1239b00fb181b681b7a062b01d0ca4bc8
:100f88006be1a0239b00fb181b68a1229200ba18f2
:100f98001268183303ca03c3c44abb18ba181278b4
:100fa8001a70c34abb18ba1812781a7011e1a12432
:100fb800a4003b191868bf4bcc2292009446bc444d
:100fc8006344bd4a22ca22c3ba4bcc22920094463b
:100fd800bc44634419685a680ff02cfd031e37d0cf
:100fe8003b191b68180023f001f8030098229200af
:100ff800b9180b60bb181b68972189007818036023
:101008007b181b68db0fdbb2002b02d0bb181b68f8
:1010180023e1a1239b00fb181b681b7a062b01d038
:10102800a14b1ae1a0239b00fb181b68a122920088
:10103800ba181268283303ca03c39c4abb18ba18e3
:1010480012781a709a4abb18ba1812781a70c0e047
:10105800a1239b00fb181b689624a4003a1913606f
:10106800a0239b00fb181b6895229200ba181360f6
:101078003b191868914bcc2292009446bc446344b7
:101088008f4a22ca22c38d4bcc2292009446bc447c
:10109800634419685a680ff0cdfc031e51d03b1900
:1010a8001b68180022f0a2ff030094229200b918ce
:1010b8000b60bb181b6893218900781803607b18a4
:1010c8001b68db0fdbb2002b02d0bb181b6839e0b2
:1010d80096239b00fb181a6895239b00fb181b6836
:1010e80014331900100024f06ffd030092229200bf
:1010f800b9180b60bb181b68912189007818036028
:101108007b181b68db0fdbb2002b02d0bb181b68f7
:1011180018e09524a4003b191b685b699022920093
:10112800b9180b60bb181a68fa239900100026f04a
:10113800d7fa03009ab23b191b681a8280235b0214
:1011480000e0594b8f229200b9180b60bb181b683e
:101158008e229200b9180b60bb181b68db0fdbb23c
:101168005a1e9341dbb201225340dbb21a1c012301
:101178001340dbb24d4c3a193919097811704c4dae
:101188007a19791909781170002b22d1a1239b00b3
:10119800fb181b6818002ef075fa03008d208000dc
:1011a8003a1813603b181b688c229200b9180b6020
:1011b800bb181b68db0fdbb23a19391909781170b3
:1011c8007a19791909781170002b02d03b181b681d
:1011d80043e0374bfb181b7801225340dbb2002b4e
:1011e80007d1324bfb181b7801225340dbb2002b8e
:1011f80027d0a124a4003b191b68180022f0f6fe92
:1012080003008b229200b9180b60bb181b688a2256
:101218009200b9180b60bb181b68db0fdbb25a1eb3
:101228009341dbb201225340dbb21a1c0123134065
:10123800dbb2002b05d03b191b681b7a022b00d0b0
:10124800a1e51b4bfa18194bfb1812781b789a4228
:1012580001d0154b01e080235b02892080003a18f9
:1012680013603b181b6888229200b9180b60bb18e2
:101278001b68db0fdbb213497a18791809781170eb
:1012880011497a1879180978117010497a1879185b
:1012980009781170002b00d104e23b181b6856e254
:1012a8005cfeffff4c9a0100040001807f020000f1
:1012b8007e02000064feffff6c9a01006cfeffffd7
:1012c800809a0100ab020000aa020000a9020000f7
:1012d800d34bcc2292009446bc446344d14a03caff
:1012e80003c3cf4bcc2292009446bc4463444824a9
:1012f800381919685a680ff09dfb031e3fd03b1937
:10130800180022f073fe030087229200b9180b60c0
:10131800bb181b6886218900781803607b181b6836
:10132800db0fdbb2002b02d0bb181b680fe2be4bf1
:10133800cc2292009446bc4463441b7a062b01d00d
:10134800ba4b04e2af239b00fb181b68b64acc21ba
:1013580089008c46bc446244303303ca03c3b44a90
:10136800bb18ba1812781a70b24abb18ba18127891
:101378001a70b14abb18ba1812781a7092e1af4bba
:10138800cc2292009446bc446344ad4a03ca03c3ca
:10139800aa4bcc2292009446bc4463444824381992
:1013a80019685a680ff046fb031e3fd03b19180016
:1013b80022f01cfe030085229200b9180b60bb18ae
:1013c8001b6884218900781803607b181b68db0f71
:1013d800dbb2002b02d0bb181b68b8e1924bcc22c1
:1013e80092009446bc4463441b7a062b01d08f4b71
:1013f800ade1af239b00fb181b688b4acc21890009
:101408008c46bc446244283303ca03c3884abb18c9
:10141800ba1812781a70874abb18ba1812781a7054
:10142800854abb18ba1812781a703be1854bcc2252
:1014380092009446bc446344834a03ca03c3814b65
:10144800cc2292009446bc44634448243819196855
:101458005a680ff0effa031e3fd03b19180022f02c
:10146800c5fd030083229200b9180b60bb181b68e6
:1014780082218900781803607b181b68db0fdbb2b8
:10148800002b02d0bb181b6861e1674bcc2292008d
:101498009446bc4463441b7a062b01d0634b56e147
:1014a800af239b00fb181b685f4acc2189008c4640
:1014b800bc446244383303ca03c35d4abb18ba1834
:1014c80012781a705b4abb18ba1812781a705a4afe
:1014d800bb18ba1812781a70e4e0af239b00fb1807
:1014e8001b6810334822ba188124a40039190a60ed
:1014f80080229200ba1813603b191868534bcc220b
:1015080092009446bc446344514a22ca22c34f4bba
:10151800cc2292009446bc44634419685a680ff080
:1015280089fa031e51d03b191b68180022f05efd92
:101538000300fe225200b9180b60bb181b68fc217f
:101548004900781803607b181b68db0fdbb2002b9f
:1015580002d0bb181b6839e081239b00fb181a686e
:1015680080239b00fb181b6814331900100024f01b
:101578002bfb0300fa225200b9180b60bb181b683a
:10158800f8214900781803607b181b68db0fdbb271
:10159800002b02d0bb181b6818e08024a4003b195c
:1015a8001b685b69f6225200b9180b60bb181a68f1
:1015b800fa239900100026f093f803009ab23b1919
:1015c8001b681a8280235b0200e0184bf422520049
:1015d800b9180b60bb181b68f2225200b9180b60cf
:1015e800bb181b68db0fdbb25a1e9341dbb201222a
:1015f8005340dbb21a1c01231340dbb2002b29d065
:101608000d4bfb1801221a70094abb18ba18127838
:101618001a70084abb18ba1812781a7042e0c04605
:1016280084feffff949a010018fdffff040001806b
:10163800ab020000aa020000a90200007cfeffff26
:10164800a49a010074feffffbc9a010044feffff4c
:10165800809a01004823fb1818002ef013f80300a5
:10166800f02040003a1813603b181b68ee22520025
:10167800b9180b60bb181b68db0fdbb244497a183a
:1016880079180978117043497a187918097811700e
:1016980041497a18791809781170002b02d03b1843
:1016a8001b6854e04823fb18180022f09ffc030035
:1016b800ec225200b9180b60bb181b68ea225200d2
:1016c800b9180b60bb181b68db0fdbb25a1e9341bd
:1016d800dbb201225340dbb21a1c01231340dbb2f8
:1016e800002b0ad02d4bcc2292009446bc44634474
:1016f8001b7a022b01d0fff72dfa264bfb181b781b
:1017080001225340dbb2002b07d1214bfb181b7879
:1017180001225340dbb2002b17d0af2189007b1880
:101728001b6800221a607b181b6800225a607b180d
:101738001b6803229a72184bfb181b78012253402e
:10174800dbb2002b01d0164b01e080235b02c822dc
:101758009200b9180b60bb181b68b0218900781873
:1017680003607b181b68db0fdbb2002b02d0bb18b1
:101778001b6801e080235b021800bd46cc239b0058
:101788009d4404bc9046f0bc08bc02b01847c04653
:10179800ab020000aa020000a902000018fdffff2a
:0417a80004000180b8
:020000040000fa
:1017ac001b5b33376d20204e4f4e451b5b33376d23
:1017bc000000c0461b5b33316d204552524f521b0b
:1017cc005b33376d0000c0461b5b33336d202057f5
:1017dc0041524e1b5b33376d0000c0461b5b3336ea
:1017ec006d2044454255471b5b33376d0000c046a6
:1017fc001b5b33376d2020494e464f1b5b32376dd8
:10180c001b5b33376d00c0461b5b33376d20494e75
:10181c00464f1b5b33376d001b5b33326d20474fdc
:10182c004f441b5b33376d001b5b33336d205741cb
:10183c00524e1b5b33376d001b5b33316d1b5b37bb
:10184c006d4552524f521b5b32376d1b5b33376dfc
:10185c000000c046696e697469616c5f67657400ed
:10186c0074656d7065726174757265006c6967681a
:10187c007400c04674656c656d657472795f4c6eee
:10188c006700c04674656c656d657472795f426ff4
:10189c006f6c000074656c656d657472795f537460
:1018ac00725f310074656c656d657472795f537429
:1018bc00725f320074656c656d657472795f537418
:1018cc00725f330074656c656d657472795f537407
:1018dc00725f340074656c656d65747279496e74f1
:1018ec00657276616c00c046627574746f6e5f656c
:1018fc0076656e740000c046627574746f6e5f6eb0
:10190c00616d650053573000535731007072657329
:10191c00735f636f756e74006c65645f6200c046c4
:10192c006c65645f6700c0466c65645f7900c04697
:10193c006c65645f7200c04664656275674c657661
:10194c00656c000069704164647265737300c04615
:10195c0070726f70657274795f31000070726f70a5
:10196c00657274795f32000070726f706572747991
:10197c005f33000070726f70657274795f340000b1
:10198c006669726d7761726556657273696f6e0008
:10199c0064697361626c6554656c656d65747279ac
:1019ac000000c04653756363657373007265626fa4
:1019bc006f74000064656c617900c0467374617467
:1019cc007573000044656c61792074696d652069dc
:1019dc007320656d7074792e205370656369667918
:1019ec00202764656c61792720696e2070657269a7
:1019fc006f6420666f726d617420285054355320cb
:101a0c00666f7220352073656329000044656c6134
:101a1c00792074696d6520696e2077726f6e67200e
:101a2c00666f726d61742e205370656369667920e0
:101a3c002764656c61792720696e20706572696f07
:101a4c006420666f726d6174202850543553206683
:101a5c006f722035207365632900c0464572726f22
:101a6c00722070726f63657373696e6720636f6d3c
:101a7c006d616e640000c0467b2253746174757393
:101a8c00223a22556e737570706f727465642043c0
:101a9c006f6d6d616e64227d0000c04673656e646f
:101aac004d73670073656e644d7367537472696e22
:101abc006700c0464d657373616765207374726906
:101acc006e6720697320656d7074792e2053706574
:101adc006369667920737472696e672e0000c04664
:101aec004661696c656420746f20616c6c6f636116
:101afc007465206d656d6f727920666f72207468e5
:101b0c0065206d6573736167652e0000415a5552ef
:101b1c00453a20427574746f6e2053573020436fd2
:101b2c00756e7420256c751b5b306d00415a5552d7
:101b3c00453a20427574746f6e2053573120436fb1
:101b4c00756e7420256c751b5b306d00415a5552b7
:101b5c00453a2054656c656d6574727920646973bf
:101b6c0061626c65641b5b306d00c0464661696cdc
:101b7c00656420746f206275696c642073656e7384
:101b8c006f722074656c656d65747279204a534f61
:101b9c004e207061796c6f61641b5b306d00c046c8
:101bac00415a5552453a2025731b5b306d00c04697
:101bbc00415a5552453a2025732829204c4544203a
:101bcc0053746174757320307825781b5b306d000d
:101bdc00415a5552453a20556e61626c6520746fbe
:101bec002067657420636f6d6d616e642072657320
:101bfc00706f6e7365207075626c69736820746f9a
:101c0c007069631b5b306d00415a5552453a204355
:101c1c006f6d6d616e64205374617475733a202519
:101c2c00751b5b306d00c046415a5552453a2052e7
:101c3c0065626f6f74696e672e2e2e1b5b306d00a4
:101c4c00415a5552453a2025732829203a20506193
:101c5c00796c6f61642025731b5b306d0000c0468e
:101c6c00415a5552453a204572726f72206765741d
:101c7c0074696e67206e65787420746f6b656e1b6b
:101c8c005b306d00415a5552453a204572726f7265
:101c9c002067657474696e6720737472696e671b54
:101cac005b306d00415a5552453a20257328292046
:101cbc003a205061796c6f616420456d7074791baa
:101ccc005b306d00415a5552453a205265626f6f38
:101cdc00742044656c6179206e6f7420666f756e2c
:101cec00641b5b306d00c046415a5552453a205238
:101cfc0065626f6f742044656c61792077726f6eca
:101d0c006720666f726d61741b5b306d0000c0469e
:101d1c00415a5552453a205363686564756c696e37
:101d2c0067207265626f6f7420696e202564207362
:101d3c0065631b5b306d0000415a5552453a204695
:101d4c0061696c656420746f207363686564756c7d
:101d5c0065207265626f6f742074696d65721b5bb0
:101d6c00306d0000415a5552453a204d65737361f0
:101d7c00676520737472696e67206e6f7420666f6e
:101d8c00756e641b5b306d00415a5552453a204dbf
:101d9c0065737361676520746f6f20626967206675
:101dac006f722054582042756666657220256c75da
:101dbc001b5b306d0000c046415a5552453a2046d7
:101dcc0061696c656420746f20616c6c6f63617405
:101ddc0065206d656d6f727920666f72206d65730d
:101dec007361676520737472696e67203a2053695a
:101dfc007a6520256c641b5b306d00000400c046c6
:101e0c00415a5552453a2050726f63657373696e2f
:101e1c006720436f6d6d616e6420272573271b5bf4
:101e2c00306d0000415a5552453a204661696c6547
:101e3c00642070726f636573735f7265626f6f7429
:101e4c005f636f6d6d616e642c2073746174757358
:101e5c00203078253038781b5b306d00415a555254
:101e6c00453a204661696c656420746f206275691f
:101e7c006c64206572726f7220726573706f6e7312
:101e8c00652e2028307825303878291b5b306d0082
:101e9c00415a5552453a204661696c65642070720e
:101eac006f636573735f73656e644d73675f636fa8
:101ebc006d6d616e642c2073746174757320307851
:101ecc00253038781b5b306d0000c046415a5552a6
:101edc00453a20556e737570706f7274656420632b
:101eec006f6d6d616e642072656365697665643ac9
:101efc002025732e1b5b306d0000c046415a555295
:101f0c00453a20556e61626c6520746f2073656e66
:101f1c006420256420726573706f6e73652c20735a
:101f2c0074617475732025641b5b306d0000c046b2
:101f3c00415a5552453a2050726f7065727479202f
:101f4c00546f7069632020203a2025731b5b306d21
:101f5c000000c046415a5552453a2050726f706588
:101f6c007274792054797065202020203a202564e1
:101f7c001b5b306d0000c046415a5552453a20500b
:101f8c00726f7065727479205061796c6f61642026
:101f9c003a2025731b5b306d0000c046415a5552e8
:101fac00453a204661696c656420746f20706172db
:101fbc0073652070726f706572747920746f7069bc
:101fcc0063203078253038782e1b5b306d00c0468e
:101fdc00415a5552453a20546f7069633a2027256f
:101fec007327205061796c6f61643a202725732721
:101ffc001b5b306d0000c046415a5552453a204992
:10200c004e495449414c20474554205265636569fb
:10201c007665641b5b306d00415a5552453a205031
:10202c00726f7065727479204745542052656365f0
:10203c00697665641b5b306d0000c046415a555291
:10204c00453a2050726f706572747920444553493b
:10205c005245442053746174757320256420566571
:10206c007273696f6e2025731b5b306d0000c04668
:10207c00415a5552453a2050726f706572747920ee
:10208c005245504f5254454420537461747573201b
:10209c0025642056657273696f6e2025731b5b3047
:1020ac006d00c046415a5552453a2054797065200e
:1020bc002564205374617475732025642049442071
:1020cc0025732056657273696f6e2025731b5b3008
:1020dc006d00c046617a5f6a736f6e5f7265616492
:1020ec0065725f696e6974282920666f7220676556
:1020fc00742076657273696f6e206661696c6564b5
:10210c001b5b306d0000c046617a5f696f745f7055
:10211c006e705f636c69656e745f70726f70657200
:10212c0074795f6765745f70726f70657274795fd4
:10213c0076657273696f6e2829206661696c6564b7
:10214c001b5b306d0000c046617a5f6a736f6e5f17
:10215c007265616465725f696e69742829206661b5
:10216c00696c65641b5b306d0000c0462573000014
:10217c00415a5552453a205265636569766564202b
:10218c00756e6b6e6f776e2070726f70657274798e
:10219c0020272573271b5b306d00c0464661696c98
:1021ac00656420746f206765742072657175657342
:1021bc00742069641b5b306d0000c046415a555257
:1021cc00453a204e6f2070726f706572747920756d
:1021dc0070646174651b5b306d00c046415a55528a
:1021ec00453a2053656e64696e672050726f706556
:1021fc0072747920666c616720307825781b5b30af
:10220c006d00c046415a5552453a556e61626c6537
:10221c0020746f20696e697469616c697a65206ad3
:10222c00736f6e2077726974657220666f7220709e
:10223c00726f70657274792050415443481b5b3047
:10224c006d00c046415a5552453a20556e61626c3c
:10225c006520746f206164642070726f7065727495
:10226c007920666f722074656c656d657472792067
:10227c00696e74657276616c2c2072657475726e01
:10228c0020636f6465203078253038781b5b306da7
:10229c000000c046415a5552453a20556e61626c59
:1022ac006520746f206164642070726f7065727445
:1022bc007920666f722059656c6c6f77204c4544a1
:1022cc002c2072657475726e20636f646520307893
:1022dc00253038781b5b306d0000c046415a555292
:1022ec00453a20556e61626c6520746f20616464a0
:1022fc002070726f706572747920666f72204465fd
:10230c00627567204c6576656c2c207265747572ed
:10231c006e20636f6465203078253038781b5b3015
:10232c006d00c046415a5552453a20556e61626c5b
:10233c006520746f206164642070726f70657274b4
:10234c007920666f7220526564204c45442c2072b3
:10235c00657475726e20636f64652020307825304b
:10236c0038781b5b306d0000415a5552453a205568
:10237c006e61626c6520746f206164642070726f92
:10238c00706572747920666f7220426c7565204c92
:10239c0045442c2072657475726e20636f646520e1
:1023ac00203078253038781b5b306d00415a5552ff
:1023bc00453a20556e61626c6520746f20616464cf
:1023cc002070726f706572747920666f722047721c
:1023dc0065656e204c45442c2072657475726e20b8
:1023ec00636f646520203078253038781b5b306d46
:1023fc000000c046415a5552453a20556e61626cf8
:10240c006520746f206164642070726f70657274e3
:10241c007920666f72204950204164647265737331
:10242c002c2072657475726e20636f646520203089
:10243c0078253038781b5b306d00c046415a5552b8
:10244c00453a20556e61626c6520746f206164643e
:10245c002070726f706572747920666f7220417093
:10246c0070204d43552050726f7065727479203115
:10247c002c2072657475726e20636f646520203039
:10248c0078253038781b5b306d00c046415a555268
:10249c00453a20556e61626c6520746f20616464ee
:1024ac002070726f706572747920666f7220417043
:1024bc0070204d43552050726f70657274792032c4
:1024cc002c2072657475726e20636f6465202030e9
:1024dc0078253038781b5b306d00c04670726f7099
:1024ec006572747920332c256c780400415a55524e
:1024fc00453a20556e61626c6520746f206164648e
:10250c002070726f706572747920666f72204170e2
:10251c0070204d43552050726f7065727479203362
:10252c002c2072657475726e20636f646520307830
:10253c00253038781b5b306d0000c04670726f70b0
:10254c006572747920342c256c780400415a5552ec
:10255c00453a20556e61626c6520746f206164642d
:10256c002070726f706572747920666f7220417082
:10257c0070204d43552050726f7065727479203401
:10258c002c2072657475726e20636f6465203078d0
:10259c00253038781b5b306d0000c046415a5552cf
:1025ac00453a20556e61626c6520746f20616464dd
:1025bc002070726f706572747920666f722054652a
:1025cc006c656d657472792044697361626c6564c5
:1025dc0020466c61672c2072657475726e20636f77
:1025ec006465203078253038781b5b306d00c04630
:1025fc0025752e25752e25752e257500415a55529b
:10260c00453a20556e61626c6520746f206164647c
:10261c002070726f706572747920666f72204669d3
:10262c00726d776172652056657273696f6e2c20be
:10263c0072657475726e20636f6465202030782526
:10264c003038781b5b306d00415a5552453a205555
:10265c006e61626c6520746f20617070656e6420b1
:10266c00656e64206f626a6563742c207265747584
:10267c00726e20636f646520203078253038781bab
:10268c005b306d00415a5552453a205061796c6f60
:10269c00616420746f6f206c6f6e67203a20256424
:1026ac001b5b306d0000c046415a5552453a46619d
:1026bc00696c656420746f206765742070726f702c
:1026cc006572747920504154434820746f7069636b
:1026dc001b5b306d0000c04674656c656d65747273
:1026ec00795f496e745f25640000c04674656c6543
:1026fc006d657472795f44626c5f25640000c0463e
:10270c0074656c656d657472795f466c745f256475
:10271c000000c046747275650000c04666616c733b
:10272c006500c046415a5552453a204361736520b5
:10273c0073656e73697469766520626f6f6c656121
:10274c006e2076616c7565206e6f742027747275bf
:10275c006527206f72202766616c736527203a20ed
:10276c0025731b5b306d0000415a5552453a20557c
:10277c006e6b6e6f776e2070726f706572747920ed
:0c278c00636f6d6d616e641b5b306d004f
:020000040000fa
:10279800704400201c0000000000000020460020bb
:1027a800040000000000000024460020040000008f
:1027b800000000002846002004000000010000007e
:1027c800c58f030070410020600000000000000079
:1027d8009043002020000000000000002c4600204c
:1027e8000400000001000000ffffffff2f31002060
:1027f80001000000000000008f43002001000000dd
:102808000000000030460020040000000000000026
:10281800344600200400000000000000df440020cf
:1028280001000000000000002d2100200100000030
:102838000000000000000020280000000000000048
:10284800f9440020010000000000000015450020a8
:1028580001000000000000005247002001000000b5
:1028680000000000384600200400000000000000be
:102878003c46002004000000000000004046002004
:1028880004000000000000006e4400200200000068
:102898000000000044460020040000000000000082
:1028a8005047002002000000010000000001000065
:1028b800534700200100000000000000544700209a
:1028c800010000000000000048460020040000004d
:1028d800000000004c46002004000000000000003a
:1028e800504600200400000000000000544600206c
:1028f800040000000000000058460020040000000a
:1029080000000000e845002008000000000000006a
:10291800554700200100000001000000ff000000f2
:102928005c46002004000000000000006046002013
:1029380004000000000000005647002001000000cd
:102948000100000004000000e6450020020000002d
:1029580000000000574700200100000000000000b0
:1029680058470020010000000000000059470020df
:10297800010000000000000028000020bc0000004a
:1029880000000000bc3a0020f40000000000000035
:10299800e40000200400000000000000644600205d
:1029a8000400000000000000e800002034000000df
:1029b800000000006846002004000000010000003c
:1029c8002b2f3d40b04300202000000000000000f5
:1029d800d043002020000000000000001c0100205f
:1029e80020000000000000003c010020c0000000a2
:1029f80000000000184300202c0000000000000028
:102a08005a4700200100000000000000fc010020df
:102a18002c000000000000004e47002002000000cb
:102a280000000000bc390020000100000000000088
:102a3800f03c00208000000000000000281d00205d
:102a48000504000000000000f04500200800000018
:102a5800000000008c4400201c0000000000000062
:102a6800703d0020800000000000000030210020a0
:102a780000040000000000002802002038000000c8
:102a880000000000600200200800000000000000b4
:102a9800f845002008000000000000003025002054
:102aa80000040000000000006c4600200400000044
:102ab8000000000070460020040000000000000034
:102ac800b03b0020b000000000000000a04500203e
:102ad8000c00000000000000a81000200008000002
:102ae800000000005b47002001000000000000001b
:102af8005c470020010000000000000000460020a4
:102b08000800000000000000b0420020380000006b
:102b18000000000030310020200300000000000009
:102b28002e2100200200000001000000010000002a
:102b38007446002004000000000000004443002008
:102b48002800000000000000603c00209000000009
:102b5800000000007846002004000000000000008b
:102b68006802002010000000000000007802002029
:102b78004200000000000000a84400201c000000e3
:102b8800000000007c460020040000000000000057
:102b98003029002000040000000000005d470020ec
:102ba8000100000001000000ff0000008046002036
:102bb800040000000000000084460020040000001b
:102bc800000000006c43002023000000000000000b
:102bd8008846002004000000000000008c46002009
:102be8000400000000000000504400201e00000007
:102bf80000000000c44400201b000000000000008a
:102c08005e47002001000000000000005f47002030
:102c180001000000000000006047002001000000e3
:102c280000000000614700200100000000000000d3
:102c380062470020010000000000000090460020cc
:102c480004000000000000006347002001000000ad
:102c580000000000644700200100000000000000a0
:102c6800944600200400000001000000ffffffff61
:102c78006547002001000000000000009846002081
:102c88000400000001000000ffffffff664700206e
:102c980001000000000000009c4600200400000025
:102ca80001000000ffffffff674700200100000050
:102cb80000000000a0460020040000000100000001
:102cc800ffffffff68470020010000000000000030
:102cd800a44600200400000001000000ffffffffe1
:102ce800694700200100000000000000a8460020fd
:102cf8000400000000000000bc02002004000000e6
:102d0800000000006a4700200100000000000000e9
:102d1800ac46002004000000000000000846002027
:102d28000800000001000000e8020020c0020020a6
:102d3800c00200202c00000000000000b046002067
:102d480004000000000000004c47002002000000c2
:102d58000100000002000000e842002030000000ee
:102d68000100000000030000b0020000a08601007e
:102d7800000000000000000000000000000000004b
:102d88000000000000000000dc0500001400000046
:102d9800000000006b470020010000000000000058
:102da800ec0200200900000000000000b4460020ea
:102db8000400000001000000dc820300f80200208b
:102dc800a0010000000000001845002018000000c5
:102dd8000100000019e701004d77030009740100a4
:102de8000dee0100494102000000000030420020c1
:102df8004000000000000000fa440020020000002b
:102e080000000000980400201800000000000000e6
:102e1800304500201800000001000000697203001e
:102e280059680300c1450100116d02005d6601008b
:102e380000000000ac4500200c000000010000006c
:102e4800306e653132333435363738001645002058
:102e58000200000000000000b84600200400000046
:102e680001000000ffffffffbc4600200400000037
:102e780001000000ffffffffb0040020b4050000c0
:102e8800000000006c470020010000000000000066
:102e98006d4700200100000000000000c04600202f
:102ea80004000000000000006e4700200100000040
:102eb8000100000001000000c446002004000000da
:102ec80001000000ffffffffc846002004000000cb
:102ed80001000000ffffffffcc46002004000000b7
:102ee80001000000ffffffff6f4700200100000006
:102ef80000000000704700200100000000000000f2
:102f0800714700200100000000000000d0460020aa
:102f18000400000000000000640a002024020000f1
:102f280000000000d446002004000000010000005a
:102f3800ffffffffd846002004000000010000004a
:102f4800ffffffffdc460020040000000100000036
:102f5800ffffffff72470020010000000000000093
:102f680073470020010000000000000074470020a3
:102f7800010000000000000075470020010000006b
:102f8800000000007647002001000000000000005b
:102f9800e046002004000000000000001046002069
:102fa800080000000100000053414d2e496f5400f5
:102fb80048450020140000000100000044ba020047
:102fc80058ba02006cba020080ba020094ba020031
:102fd800704500201000000001000000acba02009b
:102fe800bcba0200ccba0200dcba0200503400209d
:102ff8000002000000000000e44600200400000079
:1030080000000000774700200100000000000000d9
:10301800784700200100000000000000e044002084
:103028001900000001000000736e3030303030307d
:103038003030303030303030303030300000000048
:103048000000000079470020010000000000000097
:10305800880c00200004000000000000e846002062
:103068000400000001000000ffffffffec46002005
:103078000400000001000000fffffffff0460020f1
:103088000400000001000000fffffffff4460020dd
:103098000400000001000000fffffffff8460020c9
:1030a8000400000001000000ffffffff881000205f
:1030b8000600000000000000302d0020ff03000083
:1030c80000000000b84500200c00000001000000ce
:1030d80010bb000014bb000018bb0000fc4400201b
:1030e80019000000010000004241414141414444af
:1030f8003144424141414444314400000000000051
:1031080000000000804500201000000001000000c1
:10311800302e302e302e300000000000000000005d
:10312800fc46002004000000000000007a47002050
:10313800010000000100000001000000004700201d
:103148000400000001000000ffffffff7b47002094
:1031580001000000000000000447002004000000f7
:1031680001000000ffffffff7c4700200100000076
:10317800000000007d470020010000000000000062
:103188000847002004000000000000000c47002051
:1031980004000000010000000a0000007e47002033
:1031a800010000000000000010470020040000009b
:1031b80000000000901000200e0000000000000039
:1031c8005c4500201400000001000000184c0000bd
:1031d8002c4c0000404c0000544c0000684c00008f
:1031e800144700200400000000000000f03d00200b
:1031f8008000000000000000703e002080000000f9
:1032080000000000f03e00208000000000000000e8
:10321800a81800208004000000000000703f002073
:10322800800000000000000050360020000200006e
:1032380000000000f03f00208000000000000000b7
:1032480070400020800000000000000018470020a7
:10325800040000000000000090450020100000005d
:1032680000000000c44500200c0000000000000021
:10327800f040002080000000000000001c470020f3
:1032880004000000000000002047002004000000a7
:1032980001000000ffffffffa01000200100000058
:1032a8000000000024470020040000000000000087
:1032b800284700200400000001000000d041002041
:1032c800d041002060000000010000000000000064
:1032d8001044002030440020f0430020000000008b
:1032e80000000000000000000000000000000000d6
:1032f80000000000000000000000000000000000c6
:1033080000000000000000000000000000000000b5
:1033180000000000000000000000000000000000a5
:103328000000000000000000000000002c47002002
:1033380004000000000000003047002004000000e6
:1033480000000000d04500200b0000000000000035
:10335800db4500200b00000000000000344700207f
:1033680004000000000000003847002004000000ae
:10337800000000003c47002004000000000000009e
:10338800184600200800000001000000e88f030034
:10339800e88f0300f0430020200000000000000038
:1033a80010440020200000000000000030440020ed
:1033b80020000000000000007042002040000000d3
:1033c8000100000001000000000000004a000000a9
:1033d80000000000000000000000000000000000e5
:1033e80000000000000000004a000000000000008b
:1033f80000000000000000000000000000000000c5
:1034080000000000503800206c010000010000009e
:103418004300000000000000000000000000000061
:103428000000000000000000000000000000000094
:103438004300000000000000000000000000000041
:103448000000000000000000000000000000000074
:103458004300000000000000000000000000000021
:103468000000000000000000000000000000000054
:103478004300000000000000000000000000000001
:103488000000000000000000000000000000000034
:1034980043000000000000000000000000000000e1
:1034a8000000000000000000000000000000000014
:1034b80043000000000000000000000000000000c1
:1034c80000000000000000000000000000000000f4
:1034d80043000000000000000000000000000000a1
:1034e80000000000000000000000000000000000d4
:1034f800318703005d7d0300000000006483020043
:10350800998c0300988c0300988c0300988c030016
:10351800988c0300988c0300988c0300988c030007
:10352800988c0300988c0300ffffffffffffffff4d
:10353800ffffffffffff000001004153434949001f
:103548000000000000000000000000000000000073
:1035580000000000000000000000415343494900fa
:103568000000000000000000000000000000000053
:10357800000000000000000000000000a41000206f
:103588000400000000000000404700200400000084
:103598000000000044470020040000000100000073
:1035a80040470020484700200400000000000000b9
:1035b80000000000000000002222222222222222f3
:020000040000fa
:1035c800f0b516001f00446a9db00390259d06962d
:1035d8000797002c08d1102035f0f8f9039b4460b8
:1035e800586284600460c460039b5b6a19680029a0
:1035f8000bd05a68012393404a608b60039833f0dc
:10360800c1f90022039b5b6a1a60002f1cda0123b0
:103618002b607b005b080793079dba4b2a00189321
:103628001a409a421cd1b84b249a28031360069b6f
:10363800000b1843b54b01d100f081fd269a002af2
:1036480005d10933059308e000232b60e4e71a004d
:10365800093205920c33269a136005981db0f0bd07
:10366800069b079c1093119410981199002200232f
:103678002df060fb041e0ed00123249a1360a34b87
:103688001a000d320592269a002ae6d01a002699c9
:103698000e320a60e1e71aab01931bab0093039863
:1036a800109a119b2af03efb6e000490760d00d113
:1036b8007ee010981199119b954a1b031b0b1a4326
:1036c8001100944b1694f6180022934b04f06efaee
:1036d800924a934b09f086f9924a934b05f0fefc07
:1036e800040030000d002df0a9fe904a904b09f01f
:1036f80079f902000b002000290005f0effc040016
:103708000d002ef07bfe00220290002320002900ed
:103718002df016fb00280bd002982df08ffe2b0001
:1037280022002df007fb43425841029b1b1a0293cb
:1037380001231393029b162b0fd810981199da00c6
:103748007c4b9b181a685b682df0fafa00284bd05e
:10375800029b013b0293002313931a9b9e1b002399
:1037680008933300013b0b9304d501239b1b08935b
:1037780000230b93029b002b38db029a0b9b944689
:1037880063440b93002312920d93229b0124092b6f
:1037980000d985e0052b02dd0024043b2293229bff
:1037a800981e032800d985e035f038f9296b697827
:1037b8001a9b1b9a9e18604bf218202a0fdd402393
:1037c8009b1a9d405d4b0698f318d84028432ff06c
:1037d800b5fd01235a4c013e0919169374e72023bd
:1037e80006989b1a9840f2e71390b6e7089b029a4e
:1037f8009b1a089353420d9300231293c5e70023a5
:103808000f93239b002b59dc01230c930a932393da
:10381800039a556a00226a600432100014306968fd
:1038280098424fd903982ef04ffa039b28605b6aa1
:103838001b6805930a9b0e2b00d9f7e0002c00d1da
:10384800f4e0029b002b00dc7ee01a000f21394bcc
:103858000a40d2009b181e685f68029b02241d1153
:10386800eb060ad5374b0d401a6a5b6a1098119916
:1038780006f0e2fd069007910134324b36e0012351
:10388800bee70023239a0f939446029b63440c934c
:1038980001330a93002bbbdc0123b9e70123f1e7cd
:1038a80000230f942293013b00220c930a93239246
:1038b8001333ade701230f93023bf5e7239b0c93ea
:1038c8000a93a5e7013169605200a6e701231d426a
:1038d80009d0e4180e9b30001a685b68390009f0bb
:1038e80081f806000f000e9b6d1008330e93002d13
:1038f800ecd10698079932003b0006f09dfd069032
:1039080007913ce00000f07f0f270000dc8b0300ec
:103918000000f03f01fcffff0000f83f61436f63c8
:10392800a787d23fb3c8608b288ac63ffb799f50d0
:103938001344d33f38be02003204000012040000d2
:10394800000010feb8780300029b0224002b16d05a
:10395800109811995d420f23d54a2b40db00d318ec
:103968001a685b6809f03ef8012700230690079162
:10397800d04e2d11002d00d089e0002bbfd1139b14
:10398800002b00d18ee0069e079f0022ca4b300014
:1039980039002df0d5f9002800d183e00a9b002bcf
:1039a80000d17fe00c9b002b3cdd029b3900013be2
:1039b8000e930022c14b300009f014f806900791cd
:1039c8000c9f013420002df039fd069a079b09f061
:1039d80009f80022ba4b05f081fb14901591149c4c
:1039e800159d159bb74a9e18002f5fd10698079919
:1039f8000022b54b04f0daf8220033000690079154
:103a08002df0b2f9002800d0a0e2b04815998446fc
:103a180061440b000698079922002df091f90028bf
:103a280000d08de2109b119c069307941b9b002be2
:103a380000da5fe1029a0e2a00dd5be19c4bd200be
:103a48009b185c681b6808930994239b002b00db78
:103a5800cfe00a9b002b00ddcbe000d073e2089892
:103a680009990022984b08f0bdff069a079b2df094
:103a780085f90a9d2e00002800d046e2059b059a8c
:103a88005f1c31231370029b0133029341e23d42d4
:103a980005d03268736808f0a5ff3b0001346d104b
:103aa800083667e7029b0a9f0e938be77a1e804bc6
:103ab800d2009b18186859680f9b002b4bd0020046
:103ac8000b000020824906f0b7fc3300220004f006
:103ad8006df805000e00059b1493fb1817930698c4
:103ae80007992ef08bfc04002df0a8fc02000b00b7
:103af8000698079904f05af8149b30345f1c1c7020
:103b08002a003300069007912df01af9002864d195
:103b1800069a079b0020684904f048f82a003300f9
:103b28002df00ef9002800d0b0e0179bbb4200d161
:103b380078e70022614b2800310008f053ff00228b
:103b480005000e00069807995c4b08f04bff149788
:103b580006900791c3e72200330008f043ff059c55
:103b680014901591e3191993069807992ef046fcbd
:103b780017902df063fc0b0002000698079904f0db
:103b880015f8179b050030332370199b01340e007c
:103b98009c4227d114981599059b0022df194c4b9c
:103ba80005f09cfa02000b00280031002df0dcf82b
:103bb80000286bd1149a159b0020454903f0f6ffa5
:103bc80002000b00280031002df0baf8002800d1bf
:103bd80028e77b1e1a78302a02d00e9b029343e016
:103be8001f00f6e70022354b08f0fcfe069007910f
:103bf800bae7059c0a9a2300069d079e013b9b187d
:103c08000693089a099b2800310006f015fc2ef04f
:103c1800f5fb0a902df012fc089a099b08f0e2fec9
:103c28000b0002003100280003f0c0ff0a9b671c4c
:103c380030332370069ba3424ed102000b0005f0df
:103c48004dfa089a099b04000d002df08df8002804
:103c58001ad1089a099b200029002df06bf800283a
:103c680002d00a9bdb070fd40499039832f08afe2e
:103c780000233b70029b249a01331360269b002b80
:103c880000d1eae41f60e8e4029b0e937b1e1a78d9
:103c9800392a08d1059a9a421cd10e9a05990132ff
:103ca8000e9230220a701a7801321a7095e7c046cf
:103cb80038be0200b87803000000f03f000024403e
:103cc80000001c400000c0fc000014400000c07c44
:103cd8000000e03f1f00d9e700229f4b08f082fe5a
:103ce8000022002305000e003c002df023f80028d8
:103cf80087d0b9e70f9a002a00d189e0229a012ad1
:103d08006ddc169a002a66d0944a9b180d9d089c73
:103d1800089a0121d21808920b9a0398d3180b938a
:103d280034f0c5fe0600002c0edd0b9b002b0bddce
:103d38000b9a2300944200dd1300089ae41ad21a61
:103d480008920b9ad31a0b930d9b002b1dd00f9b37
:103d5800002b61d0002d10dd31002a0003982af0d5
:103d680013fd049a01000600039821f033fc0700b4
:103d78000499039832f006fe04970d9b5a1b04d051
:103d8800049903982af000fd04900121039834f067
:103d98008efe129b0500002b40dd1a0001000398df
:103da8002af0f2fc229b05000027012b3edc0027ad
:103db800069bbb4236d1079b1b03bb4232d1189be3
:103dc800079a13422ed0089b0137013308930b9ba7
:103dd80001330b9326e036231a9a9b1a96e70a9b1f
:103de8005d1e0d9bab4208db5d1b0a9b002b0cdaaa
:103df800089b0a9a9c1a00238ae70d9b0d95ea1adc
:103e0800129b00259b181293efe7089c0a9b7fe7fb
:103e18000d9d089c0f9e86e70d9ab1e7229b00270f
:103e2800012bc4dd129b0120002b08d02b69033322
:103e38009b00eb18586832f03ffd2023181a0b9ba3
:103e4800c0181f23184046d001331b1a042b3fdd2e
:103e58001c23181a089b24181b1808930b9b1b1863
:103e68000b93089b002b05dd1a00049903982af090
:103e7800a7f904900b9b002b05dd29001a00039875
:103e88002af09ef90500139b002b26d029000498e0
:103e980032f02cfd002820da029b0a22013b029313
:103ea8000499002303982df02df80f9b0490002b04
:103eb80000d14de1002331000a2203982df022f8a9
:103ec8000c9b0600002b51dc229b022b4edd0ce0e4
:103ed800042bc6d018001c30bce70a9b002b3fdc23
:103ee800229b022b3cdd0a9b0c930c9b002b0cd1d4
:103ef8002900052203982df005f805000100049813
:103f080032f0f4fc002800ddb8e5239b059fdb4375
:103f1800029300230a932900039832f033fd002e00
:103f280000d1a1e60a9b002b05d0b34203d01900ab
:103f3800039832f027fd3100039832f023fd93e611
:103f48003d003e00e1e700252e00dee70e9b3d0028
:103f580002933e0092e5c04600002440330400006e
:103f68000f9b002b00d1ade00a9b0c93002c05ddc4
:103f78003100220003982af023f906003000002fb0
:103f880011d0716803982df09ffe31000400336949
:103f98000c319a1c92000c3034f077fd012221007c
:103fa80003982af00df90a960600059b0893290044
:103fb800049823f0f5f90a990d900400049832f05a
:103fc80095fc32000e902900039828f08dfd0123fe
:103fd8000b93c36830340700002b04d10100049808
:103fe80032f084fc0b903900039832f0cbfc0123ab
:103ff800069a0b991a40089b5f1c229b0b4313439c
:1040080009d1392c21d00e9b002b01dd0d9c3134b8
:10401800089b1c707fe70e9b002b03db22990b4348
:1040280013431cd10b9b002bf2dd0499012203984a
:104038002af0c6f82900049032f058fc002802dc67
:10404800e6d1e307e4d5392ce0d13923089a137077
:104058007b1e1a78392a67d001321a705be70b9bee
:10406800002b03dd392cf0d00134d1e7089b059ae9
:104078001c7001239b1a089a9b180c9a9a423ed0ee
:1040880000230a22049903982cf03cff0a9b049011
:10409800b34209d100230a220a9903982cf032ff6f
:1040a8000a900600089782e70a9900230a220398d3
:1040b8002cf028ff00230a900a22310003982cf0e4
:1040c80021ffeee70a9b0c93059b0a9329000498ad
:1040d80023f066f90a9b30305f1c18700c9a059b18
:1040e8000400fb1a9a4208dd00230a220499039867
:1040f8002cf008ff0a970490e8e700230a93049934
:10410800012203982af05cf82900049032f0eefbb3
:1041180000289ddc01d1e3079ad47b1e1a78302a47
:1041280000d0f8e61f00f8e7059a9a4205d1029bed
:104138000133029331231370ede61f0088e7269ab6
:1041480005930833002a01d0fff785fafff785faaf
:104158000c9b002bb8dc229b022b00ddc5e6b3e7e5
:020000040000fa
:10416800f0b5d7b004af78607b681b88002b09d105
:10417800dd4b1a00002105201ff0d0f980235b02d7
:1041880000f01dfd7b681b88d84a002105201ff020
:10419800c5f980239a00d64b0021180034f0eafcb8
:1041a8009824381980239a00d14b190031f0d8fc93
:1041b8003b19a822b81819685a682ef0bff90300ed
:1041c800a22464003a1913603b191b689e2252000e
:1041d800b9180b60bb181b68db0fdbb2002b09d0ca
:1041e800c44b1a00032101201ff098f93b191b68e2
:1041f80000f0e5fc7b681b7804221340dbb2002b3f
:1042080034d0bd4b1b681d007b685b689c46bb4a6d
:10421800a823fc18ba4908236b4441c941c3634623
:104228000193c82300932b0011685268200025f0e1
:10423800d9ff0300a2225200b9180b60bb181b68f3
:104248009c214900781803607b181b68db0fdbb2e0
:10425800002b43d01400bb181b68aa4a0321012075
:104268001ff05cf93b191b6800f0a9fc7b681b7800
:1042780002221340dbb2002b30d09f4b1b681c007e
:104288009e4aa823f8189e4908236b4460c960c356
:1042980001230193c823009323001168526825f075
:1042a800a1ff0300a2225200b9180b60bb181b68bb
:1042b8009a214900781803607b181b68db0fdbb272
:1042c800002b0bd01400bb181b688e4a0321012059
:1042d8001ff024f93b191b6800f071fc7b689b6890
:1042e800013341d0884bdb781b075b0fdbb29bb2f5
:1042f800180032f003f90300a0225200b9180b602d
:104308007b685b689c46bb181d68804aa823fc181c
:104318007b4908236b4441c941c363460193c823c1
:1043280000932b0011685268200025f05bff030002
:10433800a2225200b9180b60bb181b6898214900cb
:10434800781803607b181b68db0fdbb2002b50d09a
:104358001400bb181b686e4a032101201ff0def809
:104368003b191b6800f02bfc7b681b78022213406a
:10437800dbb2002b3dd0644bdb781b075b0fdbb255
:104388009bb2180032f0baf80300a0225200b91804
:104398000b60bb181c685d4aa823f8185849082305
:1043a8006b4460c960c301230193c82300932300b1
:1043b8001168526825f016ff0300a2225200b918ae
:1043c8000b60bb181b6896214900781803607b189e
:1043d8001b68db0fdbb2002b0bd01400bb181b686b
:1043e8004b4a032101201ff099f83b191b6800f084
:1043f800e6fb7b681b7810221340dbb2002b3ad017
:104408007b681b69dbb2180033f0e2fd34f0a2fad6
:1044180003001d007b685b689c463e4aa823fc1885
:10442800374908236b4441c941c363460193c823f4
:1044380000932b0011685268200025f0d3fe03007a
:10444800a2225200b9180b60bb181b6894214900be
:10445800781803607b181b68db0fdbb2002b5dd07c
:104468001400bb181b682c4a032101201ff056f8c2
:104478003b191b68a3e37b681b7802221340dbb25d
:10448800002b4bd034f066fa03001c00214aa82305
:10449800f8181b4908236b4460c960c301230193c2
:1044a800c823009323001168526825f09bfe03007f
:1044b800a2225200b9180b60bb181b689221490050
:1044c800781803607b181b68db0fdbb2002b25d044
:1044d8001400bb181b68104a032101201ff01ef8a6
:1044e8003b191b686be3c046c8210000e8210000a7
:1044f80050360020102200000c4700205c8e03007c
:10450800ec8e030050220000881000209c8e0300cf
:10451800a0220000ac8e0300e82200007b681b7814
:1045280002221340dbb2002b04d17b681b7b5bb2f9
:10453800013325d07b681b7b5bb2be4aa821781863
:10454800116852682df088fb0300a2225200b918a6
:104558000b60bb181b6890214900781803607b1812
:104568001b68db0fdbb2002b0ad01400bb181b68da
:10457800b14a032101201ef0d1ff3b191b681ee33d
:104588007b681b7802221340dbb2002b04d17b68c6
:104598005b7b5bb2013325d07b685b7b5bb2a74a50
:1045a800a8217818116852682df056fb0300a22242
:1045b8005200b9180b60bb181b688e214900781887
:1045c80003607b181b68db0fdbb2002b0ad01400da
:1045d800bb181b689a4a032101201ef09fff3b1954
:1045e8001b68ece27b681b7802221340dbb2002bcd
:1045f80004d17b689b7b5bb2013325d07b689b7bb6
:104608005bb2904aa8217818116852682df024fbf3
:104618000300a2225200b9180b60bb181b688c213a
:104628004900781803607b181b68db0fdbb2002b8e
:104638000ad01400bb181b68834a032101201ef00e
:104648006dff3b191b68bae27b681b780222134096
:10465800dbb2002b06d17b681b7820221340dbb22b
:10466800002b34d0e0243b19784a110018002ff0b1
:10467800f1f83b19764aa8217c1869465868086001
:104688001b681168526820002bf045f80300a2222d
:104698005200b9180b60bb181b688a2149007818aa
:1046a80003607b181b68db0fdbb2002b0ad01400f9
:1046b800bb181b68674a032101201ef02fff3b1916
:1046c8001b687ce2644b5a7801210a435a707b6864
:1046d8001b7840221340dbb2002b24d07b685b6a36
:1046e8005e4aa8217818116852682df0b5fa0300bf
:1046f800a2225200b9180b60bb181b688821490018
:10470800781803607b181b68db0fdbb2002b0ad01c
:104718001400bb181b68524a032101201ef0fefe3c
:104728003b191b684be27b681b787f229343dbb203
:10473800002b24d07b689b6a4a4aa8217818116804
:1047480052682df089fa0300a2225200b9180b60b2
:10475800bb181b6886214900781803607b181b6802
:10476800db0fdbb2002b0ad01400bb181b683e4ad3
:10477800032101201ef0d2fe3b191b681fe27b6853
:104788001b7802221340dbb2002b06d17b685b78d2
:1047980001221340dbb2002b70d07b685b780122ca
:1047a8001340dbb2002b69d07b68da6a2f495c249e
:1047b8003b19180030f0ecfe012031f0b7fb3b1933
:1047c800190000202df034fc002031f0affb7b688d
:1047d800dd6a7b685b689c46254aa823fc18254946
:1047e80008236b4441c941c363460193c82300931e
:1047f8002b0011685268200025f0f4fc0300a22267
:104808005200b9180b60bb181b688421490078183e
:1048180003607b181b68db0fdbb2002b2ed0140063
:10482800bb181b68144a032101201ef077fe3b19b0
:104838001b68c4e1a48e0300302300008c8e0300a3
:1048480074230000948e0300b823000080450020e4
:10485800b48e0300002400009c100020bc8e0300ce
:1048680048240000c48e030098240000e8240000b7
:10487800cc8e0300ec8e0300f82400007b681b78c4
:1048880002221340dbb2002b06d17b685b78022240
:104898001340dbb2002b4cd07b685b7802221340bc
:1048a800dbb2002b45d07b681a6bc74948243b19fb
:1048b800180030f06dfe012031f038fb3b1919006b
:1048c80000202df0b5fb002031f030fb7b681d6b1c
:1048d8007b685b689c46bd4aa823fc18bc49082332
:1048e8006b4441c941c363460193c82300932b001d
:1048f80011685268200025f075fc0300a2225200be
:10490800b9180b60bb181b68791dff310b607b1d44
:10491800ff331b68db0fdbb2002b0ad01400bb1877
:104928001b68ac4a032101201ef0f8fd3b191b68e7
:1049380045e17b681b7802221340dbb2002b06d1cd
:104948007b685b7804221340dbb2002b37d07b688e
:104958005a6ba14b1a60a04b1b681d007b685b68f3
:104968009c469e4aa823fc18994908236b4441c9d0
:1049780041c363460193c82300932b001168526812
:10498800200025f02ffc0300a2225200b9180b606a
:10499800bb181b68791cff310b607b1cff331b683d
:1049a800db0fdbb2002b0ad01400bb181b688c4a43
:1049b800032101201ef0b2fd3b191b68ffe07b6854
:1049c8001b7802221340dbb2002b67d0854ba42250
:1049d80052009446bc44634400221a605a609a60ac
:1049e800da601a820c23fb1818001bf0a5f97e4b1d
:1049f800a42252009446bc4463441b791c007a4ba1
:104a0800a42252009446bc4463445b791d00764b53
:104a1800a42252009446bc4463449b791a00724b0a
:104a2800a42149008c46bc4463441b8c6f4934263e
:104a3800b819019300922b00220030f0a9fde82458
:104a48003b19ba19110018002ef004ff3b19684ae7
:104a5800a8217c186946586808601b681168526864
:104a680020002af058fe0300a2225200b9180b6059
:104a7800bb181b68fc21781803607b181b68db0fc8
:104a8800dbb2002b0ad01400bb181b68594a03215b
:104a980001201ef043fd3b191b6890e0a823fa187b
:104aa800554b110018002ff0e7fc0300a22252001a
:104ab800b9180b60bb181b68f821781803607b18bd
:104ac8001b68db0fdbb2002b0ad01400bb181b6875
:104ad8004a4a032101201ef021fd3b191b686ee0a4
:104ae800a823fb18f422b9180b60bb181b689b6835
:104af80090243819ba181268009300231168526874
:104b08001cf0c8fa70203b1821007a1830ca30c34c
:104b18003b185b681a0080239b009a420dd97820c5
:104b28003b187a1812ca12c33b185b68344a03212f
:104b380001201ef0f3fc334b41e0a0243b19180080
:104b48002af0b8fa30493a192b48002301938023f8
:104b580000930b001168526831f0e2fe0300a224b2
:104b680064003a1913603b191b68f022b9180b60ee
:104b7800bb181b68db0fdbb2002b08d0234b1a00d5
:104b8800032101201ef0cafc3b191b6817e088218d
:104b98007b1890203a1830ca30c37b1819688024d3
:104ba8003b193a1821ca21c33b195b689ab21648c7
:104bb800012332f099f8a2235b00fb181b68180048
:104bc800bd4653b0f0bdc04648250000d48e030052
:104bd800ec8e0300582500001c470020e48e0300db
:104be800a8250000ecfeffffc4fefffffc25000027
:104bf800dc8e030008260000f8020020542600007e
:104c08009026000002000180703f0020b4260000ba
:020000040000fa
:104c18001b5b33376d20204e4f4e451b5b33376d82
:104c28000000c0461b5b33316d204552524f521b6a
:104c38005b33376d0000c0461b5b33336d20205754
:104c480041524e1b5b33376d0000c0461b5b333649
:104c58006d2044454255471b5b33376d0000c04605
:104c68001b5b33376d2020494e464f1b5b32376d37
:104c78001b5b33376d00c0461b5b33376d20494ed5
:104c8800464f1b5b33376d001b5b33326d20474f3c
:104c98004f441b5b33376d001b5b33336d2057412b
:104ca800524e1b5b33376d001b5b33316d1b5b371b
:104cb8006d4552524f521b5b32376d1b5b33376d5c
:104cc8000000c046696e697469616c5f676574004d
:104cd800322e3000322e302e3000c04670726f7087
:104ce800657274790000c0463a2053656e6420618d
:104cf8006e642072656365697665206465766963ac
:104d0800652070726f70657274792066726f6d209d
:104d1800636c6f7564202f2f55736167653a207037
:104d2800726f7065727479203c696e6465783e2c88
:104d3800203c6461746128686578293e0000c0469b
:104d480074656c656d6574727900c0463a20536568
:104d58006e64206461746120746f20636c6f756485
:104d68002061732074656c656d65747279202f2fce
:104d780055736167653a2074656c656d6574727901
:104d8800203c696e6465783e2c203c64617461281f
:104d9800686578293e00c046696473636f70650072
:104da8003a2047657420616e642053657420417a07
:104db800757265204450532049442053636f7065d1
:104dc800202f2f55736167653a20696473636f708c
:104dd80065205b49442053636f70655d0000c046e1
:104de8007265636f6e6e65637400c0463a204d51fc
:104df8005454205265636f6e6e6563742000c0461c
:104e0800776966690000c0463a205365742057697f
:104e180066692063726564656e7469616c73202fbe
:104e28002f55736167653a2077696669203c73730b
:104e380069643e5b2c3c706173733e2c5b617574d6
:104e480068547970655d5d200000c046636c6f75bd
:104e58006400c0463a20476574204d51545420439d
:104e68006f6e6e656374696f6e20537461747573c9
:104e78000000c0466b6579003a20476574204543b9
:104e880043205075626c6963204b65792000c046e9
:104e980064657669636500003a2047657420454378
:104ea800432053657269616c204e6f2e2000c04606
:104eb800636c695f76657273696f6e003a20476547
:104ec8007420434c492076657273696f6e20000028
:104ed80076657273696f6e003a204765742046697b
:104ee800726d776172652076657273696f6e2000e6
:104ef800646562756700c0463a2047657420616e34
:104f08006420536574204465627567204c65766536
:104f18006c2000000d0a4465766963652049440ddc
:104f28000a00c0460d0a4f4b0d0a04000d0a556ec3
:104f38006b6e6f776e2e0d0a0000c0460d0a434c4b
:104f4800492056657273696f6e0d0a000d0a46692d
:104f5800726d776172652056657273696f6e0d0a9e
:104f68000000c04625730d0a0000c0460d0a5365af
:104f780074204465627567204c6576656c0d0a007f
:104f88000d0a43757272656e7420646562756720d8
:104f98006c6576656c2025730d0a04000d0a44655e
:104fa800627567206c6576656c206d757374206218
:104fb80065206265747765656e203020284c6561d0
:104fc80073742920616e64203520284d6f7374290d
:104fd800200d0a000d0a4f4b0d0a00000d0a5769f3
:104fe800466920636f6d6d616e640d0a20205365fc
:104ff8007420576946692070616972696e6720205c
:10500800203a202d736574203c737369643e5b2cd1
:105018003c706173733e2c5b61757468547970657c
:105028005d5d0d0a20204765742057694669205345
:105038007461747573202020203a202d7374617474
:1050480075730d0a20205363616e20416363657395
:105058007320506f696e7473203a202d7363616eec
:105068000d0a0400257300002c00c0463100c0461c
:10507800256400000d0a4572726f722e2057692d43
:10508800466920636f6d6d616e6420666f726d6135
:10509800742069732077696669203c737369643e7c
:1050a8005b2c3c706173733e2c5b6175746854793a
:1050b80070655d5d0d0a04002d7363616e00c04666
:1050c8002d737461747573002d7365740000c04688
:1050d800747275650d0a040066616c73650d0a04c7
:1050e8000000c0460d0a4572726f722067657474bd
:1050f800696e67206b65792e0d0a00000d0a4765f9
:10510800742f536574204450532049442053636fcf
:1051180070650d0a0000c04643757272656e742092
:1051280049442053636f7065203a202573200d0a87
:105138000000c0464e65772049442053636f706570
:10514800202573200d0a0000496e76616c69642081
:1051580049442053636f7065203a202573200d0a57
:105168000000c04649442053636f706520656e7423
:1051780065726564203a2025732e204e6f6e2d616e
:105188006c706861206e756d6265726963206c650c
:10519800747465722064657465637465642e202078
:1051a80053686f756c6420626520306e6558585876
:1051b800585858585820666f726d61740d0a00006f
:1051c80057726974696e672049442053636f70652c
:1051d80020257320746f20415443410d0a00c046b6
:1051e8004e65772049442053636f7065203a202527
:1051f800730d0a000d0a53656e642054656c656d65
:1052080065747279203c496e6465783e2c3c446133
:1052180074613e000d0a20496e6465783a20416346
:1052280074696f6e205b4578616d706c655d000018
:105238000d0a20303a20526573657420446564690c
:1052480063617465642054656c656d65747279205a
:10525800496e746572666163652028445449292043
:105268005b652e672e2074656c656d657472792098
:10527800302c305d0000c0460d0a20317e343a20c3
:10528800557064617465205369676e656420496e62
:10529800746567657220696e2068657820283420f7
:1052a8006279746573206d617829205b652e672e9d
:1052b8002074656c656d6574727920322c434146a3
:1052c80045424545465d00000d0a20357e363a20a8
:1052d80055706461746520446f75626c6520696ef1
:1052e8002068657820283820627974657329205be6
:1052f800652e672e2074656c656d6574727920352e
:105308002c4635333741303231434630313542341b
:10531800345d00000d0a20377e383a2055706461ec
:10532800746520466c6f617420696e20686578200a
:10533800283420627974657329205b652e672e20d6
:1053480074656c656d6574727920382c3431383326
:10535800343545315d00c0460d0a20393a20557074
:1053680064617465204c6f6e6720696e206865788b
:10537800202838206279746573206d617829205b54
:10538800652e672e2074656c656d65747279203999
:105398002c4341464531323334424545463536374c
:1053a800385d00000d0a2031303a20557064617470
:1053b8006520426f6f6c65616e2028747275652f69
:1053c80066616c736529205b652e672e2074656c99
:1053d800656d657472792031302c747275655d0065
:1053e8000d0a2031317e31343a205570646174657c
:1053f80020537472696e6720286e6f207370616322
:1054080065732c203637206368617273206d61786c
:1054180029205b652e672e2074656c656d65747236
:10542800792031332c48656c6c6f5f576f726c64f0
:105438002121215d0000c0460d0a496e76616c6924
:105448006420636f6d6d616e6420706172616d655b
:105458007465720d0a0400000d0a496e76616c6964
:105468006420636f6d6d616e6420696e6465782079
:10547800706172616d657465720d0a040000c04642
:105488000d0a496e76616c696420636f6d6d616e9b
:105498006420696e64657820706172616d657465f9
:1054a800722e0d0a0400c0460d0a557064617465b9
:1054b8002052656164204f6e6c792050726f706560
:1054c800727479203c496e6465783e2c3c44617462
:1054d800613e00000d0a2020496e646578207c201a
:1054e800446174612028696e2048657829207c20f1
:1054f8005772697461626c652028627920436c6f09
:10550800756429000d0a202031207e2032207c205d
:10551800696e7465676572202020202020207c2019
:1055280066616c736500c0460d0a202033207e201a
:1055380034207c20696e74656765722020202020e5
:0c55480020207c20747275650000c046b5
:020000040000fa
:10555400f0b5e3b004aff860ca48bc246400a446c4
:10556400bc446044016042603b60fb68002b03d193
:1055740033f020f903009847bc23fb18fa6803cae8
:1055840003c30123a82149007a1813605023ff3371
:10559400fb1800221a707b181b68002b01da002309
:1055a400a8e0b4217b18bc203a1830ca30c37b1859
:1055b4001b68a42149007a181360ac243b193a18db
:1055c40021ca21c33b195b68a2225200ba18136096
:1055d4004423ff33fb1800221a70f4203b180022e6
:1055e4001a605a60a4243b193a1821ca21c33b19f2
:1055f4001b689e2040003a1813605023ff33fb18a9
:105604001b78002b1dd07b181b68002b05d07b1842
:105614001a683b181b689a4207d1a2235b00fb1847
:105624001b685a425341dbb206e0a2235b00fb181d
:105634001b68db43db0fdbb24422ff32ba18137062
:105644001ee0a4225200bb181b68002b0fd0bb180d
:105654001a689e235b00fb181b689a4207d0a2239a
:105664005b00fb181b68002b01db012200e0002219
:105674004423ff33fb181a701a7801210a401a7068
:1056840001235b429c225200b9180b604423ff3370
:10569400fb181b78002b0fd0bb181a68a4235b00df
:1056a400fb181b68d31a1a00a2235b00fb181b68a3
:1056b4009a4201d3012200e000224420ff303b182b
:1056c4001a701a7801210a401a703b181b78002bb3
:1056d4000bd0a8235b00fb181a68a2235b00fb18fd
:1056e4001b689a4201dc012300e000231a1c0123f9
:1056f4001340dbb201225340dbb2002b03d033f062
:1057040059f803009847dc23f9185e4bbc22520079
:10571400ba18d2180b0003ca03c301239a21490003
:105724007a1813603423ff33fb1800221a707b1895
:105734001b68002b01da0023abe0d4217b18dc20aa
:105744003a1830ca30c37b181b68962149007a186e
:105754001360cc243b193a1821ca21c33b195b6856
:1057640094225200ba1813602823ff33fb18002236
:105774001a70fc203b1800221a605a60c4243b199a
:105784003a1821ca21c33b191b68902040003a18db
:1057940013603423ff33fb181b78002b1dd07b18b8
:1057a4001b68002b05d07b181a683b181b689a42ab
:1057b40007d194235b00fb181b685a425341dbb2a8
:1057c40006e094235b00fb181b68db43db0fdbb2b2
:1057d4002822ff32ba1813701ee096225200bb181a
:1057e4001b68002b0fd0bb181a6890235b00fb18b2
:1057f4001b689a4207d094235b00fb181b68002b9c
:1058040001db012200e000222823ff33fb181a7079
:105814001a7801210a401a7001235b428e22520039
:10582400b9180b602823ff33fb181b78002b0fd00b
:10583400bb181a6896235b00fb181b68d31a1a005e
:1058440094235b00fb181b689a4201d3012200e0f9
:1058540000222820ff303b181a701a7801210a40d0
:105864001a703b181b78002b0ed09a235b00fb1890
:105874001a6894235b00fb181b689a4204dc01231a
:1058840003e0c0468cfeffff00231a1c01231340d3
:10589400dbb201225340dbb2002b03d032f08aff8b
:1058a400030098473b68002b03d132f083ff0300c9
:1058b400984780235b02ba225200ba181360ee4b59
:1058c400ee4abc246400391989181a685b680868b0
:1058d400496823f08bff0300b8267600ba191360d9
:1058e400bb191b68002b00da20e2e44bbc225200f7
:1058f4009446bc446344e24819685a681bf03efa73
:1059040001235b42b6256d007a191360942039187f
:10591400da4b3a19d2180b0012ca12c33b185b684f
:105924009c221400b818b9190968d44abc26760018
:10593400b446bc44624400930b00116852681bf0e7
:10594400abfbd04b2200b9181a685b680868496839
:1059540023f04cff03007a1913607b191b68002b9a
:1059640000da12e100239026ba191360c64bbc2258
:1059740052009446bc446344c24a03ca03c3c24ba4
:10598400bc2252009446bc4463445a687b191b6889
:10599400d118be4bbc2464003a19d018b74b3a193d
:1059a400d218030011ca11c3b84bbc22520094464a
:1059b400bc4463445b68e4257819b04abc246400a1
:1059c400a446bc44624400930b00116852681bf067
:1059d40063fbec217b18ae4a11ca11c38023fc1867
:1059e4007b187a19b91902918821791801916946ad
:1059f400586808601b681168526820000bf01afa96
:105a04000023fb677c22ba188023fb1818685968a6
:105a140013f00efd0300b4225200b9180b60bb183a
:105a24001b688c214900781803607b181b68db0f06
:105a3400dbb2002b02d0bb181b6880e1fb6f9ab26b
:105a44003b685a819023fb181b68013301d1914ba9
:105a540075e1914bbc2252009446bc4463448821b6
:105a64007a1811ca11c38c4bbc2252009446bc4410
:105a740063445b68894abc246400381980187a1826
:105a840000930123116852681bf006fb844b20002d
:105a94003a18d118814b3a18d2180b0012ca12c303
