:020000040000fa
:10000000f07f0020890a0300df5a0300e55a03004d
:1000100000000000000000000000000000000000e0
:10002000000000000000000000000000eff50000ec
:100030000000000000000000eff50000eff50000f8
:10004000eff50000eff50000eff50000eff5000020
:10005000d99d0200eff5000035870200eff50000a2
:10006000eff50000b1930100eff50000eff500009f
:10007000397f0100edc30100f1e20200eff500005d
:10008000eff50000eff50000b1290300eff50000e7
:10009000eff500000000000000000000eff5000098
:1000a000eff50000eff50000eff50000eff50000c0
:020000040000fa
:1000b000f8b5c046f8bc08bc9e467047211a03003c
:1000c000f8b5c046f8bc08bc9e467047f919030055
:020000040000fa
:1000d000c0b601000100000048dc01000100000082
:020000040000fa
:1000e00082b0f0b5c64600b5e04ca54404af7861d7
:1000f000df48cc24a400a446bc44604401604260b4
:100100000422d02189008c4608218846b844c44482
:10011000624413607b69002b03d135f0fff80300c4
:100120009847d44bcc2292009446bc4463447a69ed
:1001300003ca03c30123c72189007a181360ce4b79
:10014000fb1800221a707b181b68002b01da0023b1
:10015000c2e0ca4bcc2080003a18d118c54b3a18df
:10016000d2180b0012ca12c3c44bcc229200944680
:10017000bc4463441b68c524a4003a191360c04bf7
:100180003a18d118bb4b3a18d2180b0022ca22c316
:10019000bb4bcc2292009446bc4463445b68c422af
:1001a0009200ba181360b74bfb1800221a70b64bb6
:1001b000cc2292009446bc44634400221a605a60e8
:1001c000b24b3a18d118b04b3a18d2180b0003cae8
:1001d00003c3ae4bcc2292009446bc4463441b68dc
:1001e000c22189007a181360a34bfb181b78002bdf
:1001f0001cd03b191b68002b05d03b191a687b18d3
:100200001b689a4207d1c4239b00fb181b685a4203
:100210005341dbb206e0c4239b00fb181b68db43a1
:10022000db0fdbb2974aba1813701de0c5229200ab
:10023000bb181b68002b0fd0bb181a68c2239b0089
:10024000fb181b689a4207d0c4239b00fb181b684d
:10025000002b01db012200e000228a4bfb181a7000
:100260001a7801210a401a7001235b42c1229200d0
:10027000b9180b60834bfb181b78002b0fd0bb18f1
:100280001a68c5239b00fb181b68d31a1a00c423e5
:100290009b00fb181b689a4201d3012200e0002258
:1002a00078483b181a701a7801210a401a703b18d6
:1002b0001b78002b0bd0c7239b00fb181a68c423a4
:1002c0009b00fb181b689a4201dc012300e000231d
:1002d0001a1c01231340dbb201225340dbb2002b76
:1002e00003d035f01bf803009847694bcc229200ed
:1002f000b918c9185e4bba18d2180b0003ca03c349
:100300000023c02189007a181360624bfb18002279
:100310001a707b181b68002b01da0023e3e05e4ba8
:10032000cc2080003a18d118594b3a18d2180b003b
:1003300012ca12c3584bcc2292009446bc44634468
:100340001b68be24a4003a191360544b3a18d11804
:100350004f4b3a18d2180b0022ca22c34f4bcc2263
:1003600092009446bc4463445b68bd229200ba1874
:1003700013604b4bfb1800221a704a4bcc229200a0
:100380009446bc44634400221a605a60464b3a18b3
:10039000d118444b3a18d2180b0003ca03c3424b7e
:1003a000cc2292009446bc4463441b68bb21890064
:1003b0007a181360374bfb181b78002b1cd03b19a5
:1003c0001b68002b05d03b191a687b181b689a42e2
:1003d00007d1bd239b00fb181b685a425341dbb277
:1003e00006e0bd239b00fb181b68db43db0fdbb281
:1003f0002b4aba1813701de0be229200bb181b686e
:10040000002b0fd0bb181a68bb239b00fb181b687e
:100410009a4207d0bd239b00fb181b68002b01db11
:10042000012200e000221e4bfb181a701a780121ed
:100430000a401a7001235b42ba229200b9180b607d
:10044000174bfb181b78002b30d0bb181a68be2343
:100450009b00fb181b68d31a1a00bd239b00fb18d6
:100460001b689a4222d3012221e0c046c0fcffff54
:10047000dcfcffff98fdffff1b03000090fdffff6a
:1004800088fdffff0f0300002cfeffff80fdffff34
:10049000b8fdffffff020000b0fdffffa8fdffff5a
:1004a000f302000034feffffa0fdffff0022a8487a
:1004b0003b181a701a7801210a401a703b181b78f1
:1004c000002b0bd0c0239b00fb181a68bd239b0098
:1004d000fb181b689a4201dc012300e000231a1c70
:1004e00001231340dbb201225340dbb2002b03d0c7
:1004f00034f014ff03009847964bcc229200ba18b0
:10050000d1180423d022920008208446bc446244bf
:10051000d2180b0003ca03c30023b92189007a183b
:1005200013608d4bfb1800221a707b181b68002b80
:1005300001da0023c2e0894bcc2080003a18d118a0
:10054000844b3a18d2180b0012ca12c3834bcc2228
:1005500092009446bc4463441b68b724a4003a1933
:1005600013607f4b3a18d1187a4b3a18d2180b0007
:1005700022ca22c37a4bcc2292009446bc446344e4
:100580005b68b6229200ba181360764bfb18002203
:100590001a70754bcc2292009446bc4463440022ee
:1005a0001a605a60714b3a18d1186f4b3a18d2182a
:1005b0000b0003ca03c36d4bcc2292009446bc448b
:1005c00063441b68b42189007a181360624bfb18de
:1005d0001b78002b1cd03b191b68002b05d03b1946
:1005e0001a687b181b689a4207d1b6239b00fb1838
:1005f0001b685a425341dbb206e0b6239b00fb184e
:100600001b68db43db0fdbb2564aba1813701de0e0
:10061000b7229200bb181b68002b0fd0bb181a68ba
:10062000b4239b00fb181b689a4207d0b6239b009b
:10063000fb181b68002b01db012200e00022494b64
:10064000fb181a701a7801210a401a7001235b42c4
:10065000b3229200b9180b60424bfb181b78002b99
:100660000fd0bb181a68b7239b00fb181b68d31a5e
:100670001a00b6239b00fb181b689a4201d3012283
:1006800000e0002237483b181a701a7801210a400e
:100690001a703b181b78002b0bd0b9239b00fb185a
:1006a0001a68b6239b00fb181b689a4201dc0123e1
:1006b00000e000231a1c01231340dbb20122534047
:1006c000dbb2002b03d034f029fe03009847d3237c
:1006d0009b0008229446bc4463441b68002b03d152
:1006e00034f01cfe03009847214bcc229200944624
:1006f000bc4463441f4a03ca03c31f4bcc24a40059
:100700003a19d0181a4b3a19d2181723009300231c
:10071000116852681ef09cf8174bcc229200944648
:10072000bc446344154a391989181a685b6808681b
:10073000496826f0ebf80300cb229200b9180b6051
:10074000bb181b68002b1dd00d4b01f01df8c046d7
:10075000f3020000d8fdffffe3020000d0fdffff21
:10076000c8fdffffd70200003cfeffffc0fdfffffa
:10077000e0fdffff3075010014feffffdcfcffff12
:1007800001000580e14bcc2292009446bc446344b6
:10079000df4819685a681df0cdfe0423d02292006c
:1007a000944608229046b844c4446344d948196822
:1007b0005a681df0bffed84bcc24a4003a19d118ba
:1007c000d64b3a19d2180b0003ca03c3d24bcc2222
:1007d00092009446bc4463445968d14b3a19d018ee
:1007e000ca4b3a19d2180b001168526832f0bcfaa1
:1007f00000239c2149007a181360ca4bcc22920036
:100800009446bc446344c84a21ca21c3c74b3a1921
:10081000d418c44bcc2292009446bc446344c04ad2
:10082000cc2080008446bc446244791802919e2109
:100830004900791801916946586808601b68116879
:10084000526820000ef0dcfcd3239b000822944663
:10085000bc4463441b6808331a00b44bcc218900a4
:100860008c46bc4463441868596817f039f8030093
:10087000ca229200b9180b60bb181b68b22189000c
:10088000781803607b181b68db0fdbb2002b03d0ea
:10089000bb181b6800f078ffa54bcc229200944651
:1008a000bc446344a34a03ca03c3a14bcc229200b5
:1008b0009446bc4463449a4acc24a400391989184c
:1008c0001a685b680868496826f020f80300cb25a1
:1008d000ad007a1913607b191b68013300d17ee0eb
:1008e000954b20003a18d118914b3a18d2180b00aa
:1008f00012ca12c3904bcc2292009446bc4463446b
:100900005a687b191b68d118854b0600ba19d41890
:100910003800834bba19d2180b001168526832f0b4
:1009200023fa864bba19d218230003ca03c3844b97
:10093000cc2292009446bc446344824a03ca03c357
:100940007a4bba19d4183d007d4bcc2292009446c4
:10095000bc446344724acc2189008c46bc44624446
:100960009c214900791802919e2149007918019132
:100970006946586808601b681168526828000ef0c4
:100980003ffc6e4bba19d218230003ca03c3d3230a
:100990009b0008229446bc4463441b680c331a0035
:1009a000624bcc2189008c46bc446344186859686a
:1009b00016f096ff0300c9229200b9180b60bb180d
:1009c0001b68b1218900781803607b181b68db0f56
:1009d000dbb2002b0cd0bb181b6800f0d5fed32374
:1009e0009b0008229446bc4463441b680022da60e2
:1009f000554bcc2080003a18d1180423d022920005
:100a00000824a446bc446244d2180b0012ca12c384
:100a1000d3239b0008229446bc4463441b68af2246
:100a20009200ba181360484b3a18d2184823f818a5
:100a300000231168526828f095fb0300ae22920053
:100a4000b9180b60bb181b68ad21890078180360ca
:100a50007b181b68db0fdbb2002b03d0bb181b68b5
:100a600000f07dfe4823fb18180020f097fe0300dd
:100a7000ac229200b9180b60bb181b68ab2189002f
:100a8000781803607b181b68db0fdbb2002b03d0e8
:100a9000bb181b6800f063fe2c4bcc2292009446de
:100aa000bc4463441b7a012b02d0294b00f057fe53
:100ab000284bcc2292009446bc4463441800302357
:100ac0001a00002134f00cfeaf239b00fb181b68ba
:100ad000204acc2189008c46bc446244103313ca9e
:100ae00013c313ca13c313ca13c313ca13c31a4bb2
:100af000fb1800221a70194bfb1800221a70184bb1
:100b0000fb1800221a7000f0d5fdc046dcfcffff88
:100b10000100060002000600e8fdffff14feffffd3
:100b20000cfeffff1cfeffff9c75010000feffff97
:100b3000f8fdffffb4750100f0fdffffd0fcffffe3
:100b400024feffffc075010078fdffff18fdffffc9
:100b500005000180e8fcffffab020000aa020000d4
:100b6000a9020000db4bcc2292009446bc446344b3
:100b7000d94a03ca03c3d74bcc2292009446bc4443
:100b800063444824381919685a680ef03bf9031e6b
:100b900040d03b19180020f001fe0300a92292006a
:100ba000b9180b60bb181b68a8218900781803606e
:100bb0007b181b68db0fdbb2002b03d0bb181b6854
:100bc00000f0cdfdc54bcc2292009446bc4463445a
:100bd0001b7a062b02d0c24b00f0c1fdaf239b0055
:100be000fb181968bd4bcc229200ba18d2180b0022
:100bf00003ca03c3bb4bfb1801221a70ba4abb18c5
:100c0000ba1812781a70b94abb18ba1812781a7042
:100c100000f050fdb64bcc2292009446bc44634495
:100c2000b44a03ca03c3b24bcc2292009446bc44dc
:100c300063444824381919685a680ef0e3f8031e13
:100c400059d03b19180020f0a9fd0300a7229200fb
:100c5000b9180b60bb181b68a621890078180360bf
:100c60007b181b68db0fdbb2002b03d0bb181b68a3
:100c700000f075fd994bcc2292009446bc4463442d
:100c80001b7a062b02d0964b00f069fdaf239b0028
:100c9000fb181b680a331a00904bcc2189008c4644
:100ca000bc4463441868596806f026f90300a5227d
:100cb0009200b9180b60bb181b68a4218900781832
:100cc00003607b181b68db0fdbb2002b03d0bb1863
:100cd0001b6800f044fd844bfb1801221a70814a06
:100ce000bb18ba1812781a70804abb18ba18127852
:100cf0001a7000f0dffc804bcc2292009446bc447a
:100d000063447e4a03ca03c37b4bcc2292009446c1
:100d1000bc4463444824381919685a680ef072f8c4
:100d2000031e00d1dce23b19180020f037fd030060
:100d3000a3229200b9180b60bb181b68a22189007e
:100d4000781803607b181b68db0fdbb2002b03d025
:100d5000bb181b6800f003fdaf239b00fb181b684a
:100d600010334822ba18a121890078180260a02205
:100d70009200ba1813607b181b681b7a012b01d0f4
:100d80005f4b72e25f4bfb1800221a705e4bfb1840
:100d900000221a7025e2a124a4003b1918685b4bbd
:100da000cc2292009446bc446344594a22ca22c3ce
:100db000564bcc2292009446bc44634419685a684e
:100dc0000ef020f8031e35d03b191b68180020f0e8
:100dd000e5fc03009e229200b9180b60bb181b684b
:100de0009d218900781803607b181b68db0fdbb23c
:100df000002b02d0bb181b6837e2a1239b00fb1815
:100e00001b681b7a062b01d0354b2ee2a0239b00da
:100e1000fb181b68a1229200ba18126803ca03c308
:100e2000384bfb1801221a70374abb18ba181278cf
:100e30001a70d6e1a124a4003b191868354bcc22c6
:100e400092009446bc446344334a22ca22c3314bc5
:100e5000cc2292009446bc44634419685a680df051
:100e6000d1ff031e5ad03b191b68180020f096fcd6
:100e700003009c229200b9180b60bb181b689b21d1
:100e80008900781803607b181b68db0fdbb2002b2e
:100e900002d0bb181b68e8e1a1239b00fb181b686c
:100ea0001b7a062b01d00e4bdfe1a0239b00fb1821
:100eb0001b68a1229200ba181268083303ca03c340
:100ec000114bfb1801221a700e4abb18ba1812787f
:100ed0001a7086e19cfeffffd475010018fdffff2c
:100ee00004000180ab020000aa020000a902000079
:100ef00094feffffe47501008cfeffff0076010009
:100f0000050001807f0200007e0200004cfeffff12
:100f10001476010054feffff28760100a124a400ee
:100f20003b191868e24bcc2292009446bc446344bf
:100f3000e04a22ca22c3de4bcc2292009446bc4433
:100f4000634419685a680df05dff031e37d03b19e2
:100f50001b68180020f022fc03009a229200b918a6
:100f60000b60bb181b6899218900781803607b18f7
:100f70001b68db0fdbb2002b02d0bb181b6874e1cf
:100f8000a1239b00fb181b681b7a062b01d0ca4bc0
:100f90006be1a0239b00fb181b68a1229200ba18ea
:100fa0001268183303ca03c3c44abb18ba181278ac
:100fb0001a70c34abb18ba1812781a7011e1a1242a
:100fc000a4003b191868bf4bcc2292009446bc4445
:100fd0006344bd4a22ca22c3ba4bcc229200944633
:100fe000bc44634419685a680df00cff031e37d0e7
:100ff0003b191b68180020f0d1fb030098229200d7
:10100000b9180b60bb181b6897218900781803601a
:101010007b181b68db0fdbb2002b02d0bb181b68f0
:1010200023e1a1239b00fb181b681b7a062b01d030
:10103000a14b1ae1a0239b00fb181b68a122920080
:10104000ba181268283303ca03c39c4abb18ba18db
:1010500012781a709a4abb18ba1812781a70c0e03f
:10106000a1239b00fb181b689624a4003a19136067
:10107000a0239b00fb181b6895229200ba181360ee
:101080003b191868914bcc2292009446bc446344af
:101090008f4a22ca22c38d4bcc2292009446bc4474
:1010a000634419685a680df0adfe031e51d03b1918
:1010b0001b68180020f072fb030094229200b918fc
:1010c0000b60bb181b6893218900781803607b189c
:1010d0001b68db0fdbb2002b02d0bb181b6839e0aa
:1010e00096239b00fb181a6895239b00fb181b682e
:1010f00014331900100022f099f803009222920094
:10110000b9180b60bb181b6891218900781803601f
:101110007b181b68db0fdbb2002b02d0bb181b68ef
:1011200018e09524a4003b191b685b69902292008b
:10113000b9180b60bb181a68fa239900100023f045
:10114000e9fc03009ab23b191b681a8280235b02f8
:1011500000e0594b8f229200b9180b60bb181b6836
:101160008e229200b9180b60bb181b68db0fdbb234
:101170005a1e9341dbb201225340dbb21a1c0123f9
:101180001340dbb24d4c3a193919097811704c4da6
:101190007a19791909781170002b22d1a1239b00ab
:1011a000fb181b6818002bf019f903008d20800034
:1011b0003a1813603b181b688c229200b9180b6018
:1011c000bb181b68db0fdbb23a19391909781170ab
:1011d0007a19791909781170002b02d03b181b6815
:1011e00043e0374bfb181b7801225340dbb2002b46
:1011f00007d1324bfb181b7801225340dbb2002b86
:1012000027d0a124a4003b191b68180020f0c6fabf
:1012100003008b229200b9180b60bb181b688a224e
:101220009200b9180b60bb181b68db0fdbb25a1eab
:101230009341dbb201225340dbb21a1c012313405d
:10124000dbb2002b05d03b191b681b7a022b00d0a8
:10125000a1e51b4bfa18194bfb1812781b789a4220
:1012600001d0154b01e080235b02892080003a18f1
:1012700013603b181b6888229200b9180b60bb18da
:101280001b68db0fdbb213497a18791809781170e3
:1012900011497a1879180978117010497a18791853
:1012a00009781170002b00d104e23b181b6856e24c
:1012b0005cfeffff40760100040001807f02000019
:1012c0007e02000064feffff607601006cfeffffff
:1012d00074760100ab020000aa020000a90200001f
:1012e000d34bcc2292009446bc446344d14a03caf7
:1012f00003c3cf4bcc2292009446bc4463444824a1
:10130000381919685a680df07dfd031e3fd03b194e
:10131000180020f043fa030087229200b9180b60ee
:10132000bb181b6886218900781803607b181b682e
:10133000db0fdbb2002b02d0bb181b680fe2be4be9
:10134000cc2292009446bc4463441b7a062b01d005
:10135000ba4b04e2af239b00fb181b68b64acc21b2
:1013600089008c46bc446244303303ca03c3b44a88
:10137000bb18ba1812781a70b24abb18ba18127889
:101380001a70b14abb18ba1812781a7092e1af4bb2
:10139000cc2292009446bc446344ad4a03ca03c3c2
:1013a000aa4bcc2292009446bc446344482438198a
:1013b00019685a680df026fd031e3fd03b1918002e
:1013c00020f0ecf9030085229200b9180b60bb18dd
:1013d0001b6884218900781803607b181b68db0f69
:1013e000dbb2002b02d0bb181b68b8e1924bcc22b9
:1013f00092009446bc4463441b7a062b01d08f4b69
:10140000ade1af239b00fb181b688b4acc21890000
:101410008c46bc446244283303ca03c3884abb18c1
:10142000ba1812781a70874abb18ba1812781a704c
:10143000854abb18ba1812781a703be1854bcc224a
:1014400092009446bc446344834a03ca03c3814b5d
:10145000cc2292009446bc4463444824381919684d
:101460005a680df0cffc031e3fd03b19180020f046
:1014700095f9030083229200b9180b60bb181b6812
:1014800082218900781803607b181b68db0fdbb2b0
:10149000002b02d0bb181b6861e1674bcc22920085
:1014a0009446bc4463441b7a062b01d0634b56e13f
:1014b000af239b00fb181b685f4acc2189008c4638
:1014c000bc446244383303ca03c35d4abb18ba182c
:1014d00012781a705b4abb18ba1812781a705a4af6
:1014e000bb18ba1812781a70e4e0af239b00fb18ff
:1014f0001b6810334822ba188124a40039190a60e5
:1015000080229200ba1813603b191868534bcc2202
:1015100092009446bc446344514a22ca22c34f4bb2
:10152000cc2292009446bc44634419685a680df07a
:1015300069fc031e51d03b191b68180020f02ef9de
:101540000300fe225200b9180b60bb181b68fc2177
:101550004900781803607b181b68db0fdbb2002b97
:1015600002d0bb181b6839e081239b00fb181a6866
:1015700080239b00fb181b6814331900100021f016
:1015800055fe0300fa225200b9180b60bb181b6805
:10159000f8214900781803607b181b68db0fdbb269
:1015a000002b02d0bb181b6818e08024a4003b1954
:1015b0001b685b69f6225200b9180b60bb181a68e9
:1015c000fa239900100023f0a5fa03009ab23b1900
:1015d0001b681a8280235b0200e0184bf422520041
:1015e000b9180b60bb181b68f2225200b9180b60c7
:1015f000bb181b68db0fdbb25a1e9341dbb2012222
:101600005340dbb21a1c01231340dbb2002b29d05c
:101610000d4bfb1801221a70094abb18ba18127830
:101620001a70084abb18ba1812781a7042e0c046fd
:1016300084feffff8876010018fdffff0400018093
:10164000ab020000aa020000a90200007cfeffff1e
:101650009876010074feffffb076010044feffffa4
:10166000747601004823fb1818002af0b7fe030027
:10167000f02040003a1813603b181b68ee2252001d
:10168000b9180b60bb181b68db0fdbb244497a1832
:1016900079180978117043497a1879180978117006
:1016a00041497a18791809781170002b02d03b183b
:1016b0001b6854e04823fb18180020f06ff8030063
:1016c000ec225200b9180b60bb181b68ea225200ca
:1016d000b9180b60bb181b68db0fdbb25a1e9341b5
:1016e000dbb201225340dbb21a1c01231340dbb2f0
:1016f000002b0ad02d4bcc2292009446bc4463446c
:101700001b7a022b01d0fff72dfa264bfb181b7812
:1017100001225340dbb2002b07d1214bfb181b7871
:1017200001225340dbb2002b17d0af2189007b1878
:101730001b6800221a607b181b6800225a607b1805
:101740001b6803229a72184bfb181b780122534026
:10175000dbb2002b01d0164b01e080235b02c822d4
:101760009200b9180b60bb181b68b021890078186b
:1017700003607b181b68db0fdbb2002b02d0bb18a9
:101780001b6801e080235b021800bd46cc239b0050
:101790009d4404bc9046f0bc08bc02b01847c0464b
:1017a000ab020000aa020000a902000018fdffff22
:0417b00004000180b0
:020000040000fa
:1017b4001b5b33376d20204e4f4e451b5b33376d1b
:1017c4000000c0461b5b33316d204552524f521b03
:1017d4005b33376d0000c0461b5b33336d202057ed
:1017e40041524e1b5b33376d0000c0461b5b3336e2
:1017f4006d2044454255471b5b33376d0000c0469e
:101804001b5b33376d2020494e464f1b5b32376dcf
:101814001b5b33376d00c0461b5b33376d20494e6d
:10182400464f1b5b33376d001b5b33326d20474fd4
:101834004f441b5b33376d001b5b33336d205741c3
:10184400524e1b5b33376d001b5b33316d1b5b37b3
:101854006d4552524f521b5b32376d1b5b33376df4
:101864000000c046696e697469616c5f67657400e5
:1018740074656d7065726174757265006c69676812
:101884007400c04674656c656d657472795f4c6ee6
:101894006700c04674656c656d657472795f426fec
:1018a4006f6c000074656c656d657472795f537458
:1018b400725f310074656c656d657472795f537421
:1018c400725f320074656c656d657472795f537410
:1018d400725f330074656c656d657472795f5374ff
:1018e400725f340074656c656d65747279496e74e9
:1018f400657276616c00c046627574746f6e5f6564
:1019040076656e740000c046627574746f6e5f6ea7
:10191400616d650053573000535731007072657321
:10192400735f636f756e74006c65645f6200c046bc
:101934006c65645f6700c0466c65645f7900c0468f
:101944006c65645f7200c04664656275674c657659
:10195400656c000069704164647265737300c0460d
:1019640070726f70657274795f31000070726f709d
:10197400657274795f32000070726f706572747989
:101984005f33000070726f70657274795f340000a9
:101994006669726d7761726556657273696f6e0000
:1019a40064697361626c6554656c656d65747279a4
:1019b4000000c04653756363657373007265626f9c
:1019c4006f74000064656c617900c046737461745f
:1019d4007573000044656c61792074696d652069d4
:1019e4007320656d7074792e205370656369667910
:1019f400202764656c61792720696e20706572699f
:101a04006f6420666f726d617420285054355320c2
:101a1400666f7220352073656329000044656c612c
:101a2400792074696d6520696e2077726f6e672006
:101a3400666f726d61742e205370656369667920d8
:101a44002764656c61792720696e20706572696fff
:101a54006420666f726d617420285054355320667b
:101a64006f722035207365632900c0464572726f1a
:101a7400722070726f63657373696e6720636f6d34
:101a84006d616e640000c0467b225374617475738b
:101a9400223a22556e737570706f727465642043b8
:101aa4006f6d6d616e64227d0000c04673656e6467
:101ab4004d73670073656e644d7367537472696e1a
:101ac4006700c0464d6573736167652073747269fe
:101ad4006e6720697320656d7074792e205370656c
:101ae4006369667920737472696e672e0000c0465c
:101af4004661696c656420746f20616c6c6f63610e
:101b04007465206d656d6f727920666f72207468dc
:101b140065206d6573736167652e0000415a5552e7
:101b2400453a20427574746f6e2053573020436fca
:101b3400756e7420256c751b5b306d00415a5552cf
:101b4400453a20427574746f6e2053573120436fa9
:101b5400756e7420256c751b5b306d00415a5552af
:101b6400453a2054656c656d6574727920646973b7
:101b740061626c65641b5b306d00c0464661696cd4
:101b8400656420746f206275696c642073656e737c
:101b94006f722074656c656d65747279204a534f59
:101ba4004e207061796c6f61641b5b306d00c046c0
:101bb400415a5552453a2025731b5b306d00c0468f
:101bc400415a5552453a2025732829204c45442032
:101bd40053746174757320307825781b5b306d0005
:101be400415a5552453a20556e61626c6520746fb6
:101bf4002067657420636f6d6d616e642072657318
:101c0400706f6e7365207075626c69736820746f91
:101c14007069631b5b306d00415a5552453a20434d
:101c24006f6d6d616e64205374617475733a202511
:101c3400751b5b306d00c046415a5552453a2052df
:101c440065626f6f74696e672e2e2e1b5b306d009c
:101c5400415a5552453a2025732829203a2050618b
:101c6400796c6f61642025731b5b306d0000c04686
:101c7400415a5552453a204572726f722067657415
:101c840074696e67206e65787420746f6b656e1b63
:101c94005b306d00415a5552453a204572726f725d
:101ca4002067657474696e6720737472696e671b4c
:101cb4005b306d00415a5552453a2025732829203e
:101cc4003a205061796c6f616420456d7074791ba2
:101cd4005b306d00415a5552453a205265626f6f30
:101ce400742044656c6179206e6f7420666f756e24
:101cf400641b5b306d00c046415a5552453a205230
:101d040065626f6f742044656c61792077726f6ec1
:101d14006720666f726d61741b5b306d0000c04696
:101d2400415a5552453a205363686564756c696e2f
:101d340067207265626f6f7420696e20256420735a
:101d440065631b5b306d0000415a5552453a20468d
:101d540061696c656420746f207363686564756c75
:101d640065207265626f6f742074696d65721b5ba8
:101d7400306d0000415a5552453a204d65737361e8
:101d8400676520737472696e67206e6f7420666f66
:101d9400756e641b5b306d00415a5552453a204db7
:101da40065737361676520746f6f2062696720666d
:101db4006f722054582042756666657220256c75d2
:101dc4001b5b306d0000c046415a5552453a2046cf
:101dd40061696c656420746f20616c6c6f636174fd
:101de40065206d656d6f727920666f72206d657305
:101df4007361676520737472696e67203a20536952
:101e04007a6520256c641b5b306d00000400c046bd
:101e1400415a5552453a2050726f63657373696e27
:101e24006720436f6d6d616e6420272573271b5bec
:101e3400306d0000415a5552453a204661696c653f
:101e4400642070726f636573735f7265626f6f7421
:101e54005f636f6d6d616e642c2073746174757350
:101e6400203078253038781b5b306d00415a55524c
:101e7400453a204661696c656420746f2062756917
:101e84006c64206572726f7220726573706f6e730a
:101e9400652e2028307825303878291b5b306d007a
:101ea400415a5552453a204661696c656420707206
:101eb4006f636573735f73656e644d73675f636fa0
:101ec4006d6d616e642c2073746174757320307849
:101ed400253038781b5b306d0000c046415a55529e
:101ee400453a20556e737570706f72746564206323
:101ef4006f6d6d616e642072656365697665643ac1
:101f04002025732e1b5b306d0000c046415a55528c
:101f1400453a20556e61626c6520746f2073656e5e
:101f24006420256420726573706f6e73652c207352
:101f340074617475732025641b5b306d0000c046aa
:101f4400415a5552453a2050726f70657274792027
:101f5400546f7069632020203a2025731b5b306d19
:101f64000000c046415a5552453a2050726f706580
:101f74007274792054797065202020203a202564d9
:101f84001b5b306d0000c046415a5552453a205003
:101f9400726f7065727479205061796c6f6164201e
:101fa4003a2025731b5b306d0000c046415a5552e0
:101fb400453a204661696c656420746f20706172d3
:101fc40073652070726f706572747920746f7069b4
:101fd40063203078253038782e1b5b306d00c04686
:101fe400415a5552453a20546f7069633a20272567
:101ff4007327205061796c6f61643a202725732719
:102004001b5b306d0000c046415a5552453a204989
:102014004e495449414c20474554205265636569f3
:102024007665641b5b306d00415a5552453a205029
:10203400726f7065727479204745542052656365e8
:10204400697665641b5b306d0000c046415a555289
:10205400453a2050726f7065727479204445534933
:102064005245442053746174757320256420566569
:102074007273696f6e2025731b5b306d0000c04660
:10208400415a5552453a2050726f706572747920e6
:102094005245504f52544544205374617475732013
:1020a40025642056657273696f6e2025731b5b303f
:1020b4006d00c046415a5552453a20547970652006
:1020c4002564205374617475732025642049442069
:1020d40025732056657273696f6e2025731b5b3000
:1020e4006d00c046617a5f6a736f6e5f726561648a
:1020f40065725f696e6974282920666f722067654e
:10210400742076657273696f6e206661696c6564ac
:102114001b5b306d0000c046617a5f696f745f704d
:102124006e705f636c69656e745f70726f706572f8
:1021340074795f6765745f70726f70657274795fcc
:1021440076657273696f6e2829206661696c6564af
:102154001b5b306d0000c046617a5f6a736f6e5f0f
:102164007265616465725f696e69742829206661ad
:10217400696c65641b5b306d0000c046257300000c
:10218400415a5552453a2052656365697665642023
:10219400756e6b6e6f776e2070726f706572747986
:1021a40020272573271b5b306d00c0464661696c90
:1021b400656420746f20676574207265717565733a
:1021c400742069641b5b306d0000c046415a55524f
:1021d400453a204e6f2070726f7065727479207565
:1021e40070646174651b5b306d00c046415a555282
:1021f400453a2053656e64696e672050726f70654e
:1022040072747920666c616720307825781b5b30a6
:102214006d00c046415a5552453a556e61626c652f
:1022240020746f20696e697469616c697a65206acb
:10223400736f6e2077726974657220666f72207096
:10224400726f70657274792050415443481b5b303f
:102254006d00c046415a5552453a20556e61626c34
:102264006520746f206164642070726f706572748d
:102274007920666f722074656c656d65747279205f
:10228400696e74657276616c2c2072657475726ef9
:1022940020636f6465203078253038781b5b306d9f
:1022a4000000c046415a5552453a20556e61626c51
:1022b4006520746f206164642070726f706572743d
:1022c4007920666f722059656c6c6f77204c454499
:1022d4002c2072657475726e20636f64652030788b
:1022e400253038781b5b306d0000c046415a55528a
:1022f400453a20556e61626c6520746f2061646498
:102304002070726f706572747920666f72204465f4
:10231400627567204c6576656c2c207265747572e5
:102324006e20636f6465203078253038781b5b300d
:102334006d00c046415a5552453a20556e61626c53
:102344006520746f206164642070726f70657274ac
:102354007920666f7220526564204c45442c2072ab
:10236400657475726e20636f646520203078253043
:1023740038781b5b306d0000415a5552453a205560
:102384006e61626c6520746f206164642070726f8a
:10239400706572747920666f7220426c7565204c8a
:1023a40045442c2072657475726e20636f646520d9
:1023b400203078253038781b5b306d00415a5552f7
:1023c400453a20556e61626c6520746f20616464c7
:1023d4002070726f706572747920666f7220477214
:1023e40065656e204c45442c2072657475726e20b0
:1023f400636f646520203078253038781b5b306d3e
:102404000000c046415a5552453a20556e61626cef
:102414006520746f206164642070726f70657274db
:102424007920666f72204950204164647265737329
:102434002c2072657475726e20636f646520203081
:1024440078253038781b5b306d00c046415a5552b0
:10245400453a20556e61626c6520746f2061646436
:102464002070726f706572747920666f722041708b
:1024740070204d43552050726f706572747920310d
:102484002c2072657475726e20636f646520203031
:1024940078253038781b5b306d00c046415a555260
:1024a400453a20556e61626c6520746f20616464e6
:1024b4002070726f706572747920666f722041703b
:1024c40070204d43552050726f70657274792032bc
:1024d4002c2072657475726e20636f6465202030e1
:1024e40078253038781b5b306d00c04670726f7091
:1024f4006572747920332c256c780400415a555246
:10250400453a20556e61626c6520746f2061646485
:102514002070726f706572747920666f72204170da
:1025240070204d43552050726f706572747920335a
:102534002c2072657475726e20636f646520307828
:10254400253038781b5b306d0000c04670726f70a8
:102554006572747920342c256c780400415a5552e4
:10256400453a20556e61626c6520746f2061646425
:102574002070726f706572747920666f722041707a
:1025840070204d43552050726f70657274792034f9
:102594002c2072657475726e20636f6465203078c8
:1025a400253038781b5b306d0000c046415a5552c7
:1025b400453a20556e61626c6520746f20616464d5
:1025c4002070726f706572747920666f7220546522
:1025d4006c656d657472792044697361626c6564bd
:1025e40020466c61672c2072657475726e20636f6f
:1025f4006465203078253038781b5b306d00c04628
:1026040025752e25752e25752e257500415a555292
:10261400453a20556e61626c6520746f2061646474
:102624002070726f706572747920666f72204669cb
:10263400726d776172652056657273696f6e2c20b6
:1026440072657475726e20636f646520203078251e
:102654003038781b5b306d00415a5552453a20554d
:102664006e61626c6520746f20617070656e6420a9
:10267400656e64206f626a6563742c20726574757c
:10268400726e20636f646520203078253038781ba3
:102694005b306d00415a5552453a205061796c6f58
:1026a400616420746f6f206c6f6e67203a2025641c
:1026b4001b5b306d0000c046415a5552453a466195
:1026c400696c656420746f206765742070726f7024
:1026d4006572747920504154434820746f70696363
:1026e4001b5b306d0000c04674656c656d6574726b
:1026f400795f496e745f25640000c04674656c653b
:102704006d657472795f44626c5f25640000c04635
:1027140074656c656d657472795f466c745f25646d
:102724000000c046747275650000c04666616c7333
:102734006500c046415a5552453a204361736520ad
:1027440073656e73697469766520626f6f6c656119
:102754006e2076616c7565206e6f742027747275b7
:102764006527206f72202766616c736527203a20e5
:1027740025731b5b306d0000415a5552453a205574
:102784006e6b6e6f776e2070726f706572747920e5
:0c279400636f6d6d616e641b5b306d0047
:020000040000fa
:1027a000204600201c000000000000004c340020e7
:1027b000040000000000000014420020040000009b
:1027c00000000000e44700200400000001000000b9
:1027d000d95a0300e8420020600000000000000019
:1027e000604500202000000000000000e8470020b5
:1027f0000400000001000000ffffffff2b3100205c
:1028000001000000000000005f4500200100000002
:1028100000000000ec470020040000000000000061
:10282000f0470020040000000000000029210020e3
:102830000100000000000000a94600200100000087
:102840000000000000000020280000000000000040
:10285000c54600200100000000000000e146002005
:102860000100000000000000fa4800200100000004
:1028700000000000f44700200400000000000000f9
:10288000f84700200400000000000000fc47002082
:1028900004000000000000001e46002002000000ae
:1028a00000000000004800200400000000000000bc
:1028b000f8480020020000000100000000010000b4
:1028c000fb4800200100000000000000fc48002040
:1028d0000100000000000000044800200400000087
:1028e0000000000008480020040000000000000074
:1028f0000c480020040000000000000010480020e8
:102900000400000000000000144800200400000043
:10291000000000009c4700200800000000000000ac
:10292000fd4800200100000001000000ff00000041
:102930001848002004000000000000001c4800208f
:102940000400000000000000fe480020010000001c
:102950000100000004000000f64800200200000012
:1029600000000000ff4800200100000000000000ff
:102970000049002001000000000000000149002083
:10298000010000000000000028000020bc00000042
:1029900000000000603b0020f40000000000000088
:1029a000e400002004000000000000002048002097
:1029b0000400000000000000e800002034000000d7
:1029c0000000000024480020040000000100000076
:1029d0002b2f3d408045002020000000000000001b
:1029e000a045002020000000000000001c01002085
:1029f00020000000000000003c010020c00000009a
:102a000000000000904400202c00000000000000a6
:102a1000024900200100000000000000fc0100202d
:102a20002c000000000000002a210020020000000d
:102a300000000000603a00200001000000000000db
:102a4000943d00208000000000000000241d0020b4
:102a50000504000000000000a4470020080000005a
:102a6000000000003c4600201c00000000000000a8
:102a7000143e002080000000000000002c210020f7
:102a800000040000000000002802002038000000c0
:102a900000000000600200200800000000000000ac
:102aa000ac47002008000000000000002c2500209a
:102ab000000400000000000028480020040000007e
:102ac000000000002c48002004000000000000006e
:102ad000543c0020b0000000000000006c470020c3
:102ae0000c00000000000000a410002000080000fe
:102af0000000000003490020010000000000000069
:102b0000044900200100000000000000b44700203c
:102b100008000000000000002844002038000000e9
:102b2000000000002c310020200300000000000005
:102b3000aa46002002000000010000000100000081
:102b40003048002004000000000000001445002070
:102b50002800000000000000043d0020900000005c
:102b600000000000344800200400000000000000c5
:102b70006802002010000000000000007802002021
:102b80004200000000000000584600201c00000029
:102b90000000000038480020040000000000000091
:102ba0002c2900200004000000000000054900203e
:102bb0000100000001000000ff0000003c48002070
:102bc0000400000000000000404800200400000055
:102bd000000000003c450020230000000000000031
:102be0004448002004000000000000004848002085
:102bf0000400000000000000004600201e0000004d
:102c000000000000744600201b00000000000000cf
:102c100006490020010000000000000007490020d4
:102c20000100000000000000084900200100000031
:102c30000000000009490020010000000000000021
:102c40000a49002001000000000000004c4800205c
:102c500004000000000000000b49002001000000fb
:102c6000000000000c4900200100000000000000ee
:102c7000504800200400000001000000ffffffff9b
:102c80000d49002001000000000000005448002011
:102c90000400000001000000ffffffff0e490020bc
:102ca000010000000000000058480020040000005f
:102cb00001000000ffffffff0f490020010000009e
:102cc000000000005c48002004000000010000003b
:102cd000ffffffff1049002001000000000000007e
:102ce000604800200400000001000000ffffffff1b
:102cf000114900200100000000000000644800208d
:102d00000400000000000000bc02002004000000dd
:102d10000000000012490020010000000000000037
:102d2000684800200400000000000000bc470020ac
:102d30000800000001000000e8020020c00200209e
:102d4000c00200202c000000000000006c480020a1
:102d50000400000000000000f44800200200000011
:102d6000010000000200000060440020300000006c
:102d70000100000000030000b0020000a086010076
:102d80000000000000000000000000000000000043
:102d90000000000000000000dc050000140000003e
:102da00000000000134900200100000000000000a6
:102db000ec02002009000000000000007048002024
:102dc0000400000001000000504d0300f802002044
:102dd000a001000000000000e446002018000000f0
:102de00001000000b1be0100ad42030041520100ec
:102df000a5c50100f118020000000000e843002012
:102e00004000000000000000c64600200200000054
:102e100000000000980400201800000000000000de
:102e2000fc4600201800000001000000a93e03003d
:102e300005340300a12c01006d43020095440100fc
:102e400000000000784700200c0000000100000096
:102e5000306e65313233343536373800e246002083
:102e60000200000000000000744800200400000080
:102e700001000000ffffffff784800200400000071
:102e800001000000ffffffffb0040020b4050000b8
:102e900000000000144900200100000000000000b4
:102ea0001549002001000000000000007c480020bf
:102eb000040000000000000016490020010000008e
:102ec0000100000001000000804800200400000014
:102ed00001000000ffffffff844800200400000005
:102ee00001000000ffffffff8848002004000000f1
:102ef00001000000ffffffff174900200100000054
:102f0000000000001849002001000000000000003f
:102f10001949002001000000000000008c4800203a
:102f20000400000000000000640a002024020000e9
:102f30000000000090480020040000000100000094
:102f4000ffffffff94480020040000000100000084
:102f5000ffffffff98480020040000000100000070
:102f6000ffffffff1a4900200100000000000000e1
:102f70001b49002001000000000000001c49002047
:102f800001000000000000001d49002001000000b9
:102f9000000000001e4900200100000000000000a9
:102fa0009c4800200400000000000000c4470020ee
:102fb000080000000100000053414d2e496f5400ed
:102fc000144700201400000001000000988902004e
:102fd000ac890200c0890200d4890200e88902009d
:102fe0003c4700201000000001000000008a0200a1
:102ff000108a0200208a0200308a02006036002017
:103000000002000000000000a048002004000000b2
:10301000000000001f490020010000000000000027
:10302000204900200100000000000000ac46002004
:103030001900000001000000736e30303030303075
:103040003030303030303030303030300000000040
:1030500000000000214900200100000000000000e5
:10306000880c00200004000000000000a44800209c
:103070000400000001000000ffffffffa84800203f
:103080000400000001000000ffffffffac4800202b
:103090000400000001000000ffffffffb048002017
:1030a0000400000001000000ffffffffb448002003
:1030b0000400000001000000ffffffff8810002057
:1030c00006000000000000002c2d0020ff0300007f
:1030d00000000000844700200c00000001000000f8
:1030e00024840000288400002c840000c8460020ae
:1030f00019000000010000004241414141414444a7
:103100003144424141414444314400000000000048
:10311000000000004c4700201000000001000000eb
:10312000302e302e302e3000000000000000000055
:10313000b8480020040000000000000022490020e0
:10314000010000000100000001000000bc48002058
:103150000400000001000000ffffffff23490020e2
:103160000100000000000000c04800200400000032
:1031700001000000ffffffff2449002001000000c4
:1031800000000000254900200100000000000000b0
:10319000c44800200400000000000000c8480020cf
:1031a00004000000010000000a0000002649002081
:1031b0000100000000000000901000200e00000040
:1031c000000000002847002014000000010000005b
:1031d000603f0000743f0000883f00009c3f0000fb
:1031e000b03f0000cc4800200400000000000000b8
:1031f000943e00208000000000000000143f0020ea
:103200008000000000000000943f002080000000cb
:1032100000000000a418002080040000000000004e
:1032200014400020800000000000000060380020f2
:103230000002000000000000944000208000000018
:103240000000000014410020800000000000000089
:10325000d048002004000000000000005c4700206f
:103260001000000000000000904700200c0000004b
:1032700000000000944100208000000000000000d9
:10328000d44800200400000000000000d8480020be
:103290000400000001000000ffffffffa01000205d
:1032a0000100000000000000dc48002004000000d5
:1032b00000000000e04800200400000000000000c2
:1032c000484300205000000000000000503400205f
:1032d0001002000000000000c04500202000000097
:1032e00001000000010000000300000000000000d9
:1032f00000000000000000000000000000000000ce
:10330000cc470020cc47002008000000000000004f
:10331000e44800200400000000000000bc4400203d
:103320002c00000000000000e84400202c000000f9
:1033300000000000d4470020080000000100000049
:10334000e4430020040000009843002050000000e7
:1033500000000000e8480020040000000000000019
:10336000e0450020200000000100000001000000f6
:10337000030000000000000000000000000000004a
:103380000000000000000000dc470020dc470020b7
:1033900008000000000000008f4600201a00000016
:1033a00000000000ec4800200400000000000000c5
:1033b0001842002068000000010000000100000029
:1033c00003000000000000000000000000000000fa
:1033d0000000000000000000a50003000000000045
:1033e00000000000000000001558030079220300cf
:1033f00000000000000000000000000000000000cd
:1034000000000000000000000000000000000000bc
:1034100000000000000000000000000000000000ac
:103420000000000080420020680000000100000051
:103430000100000003000000000000000000000088
:10344000000000000000000000000000a5000300d4
:1034500000000000000000000000000015580300fc
:1034600079220300000000000000000000000000be
:10347000000000000000000000000000000000004c
:10348000000000000000000000000000000000003c
:103490000000000000000000f048002004000000d0
:1034a0000000000000000000000000002222222294
:020000040000fa
:1034b000f0b5d7b004af78607b681b88002b09d1ca
:1034c000dd4b1a00002105201df04efb80235b021e
:1034d00000f01dfd7b681b88d84a002105201df0e7
:1034e00043fb80239a00d64b0021180032f0f8f8f5
:1034f0009824381980239a00d14b19002ff082f9b3
:103500003b19a822b81819685a682bf00bfe030063
:10351000a22464003a1913603b191b689e225200d2
:10352000b9180b60bb181b68db0fdbb2002b09d08e
:10353000c44b1a00032101201df016fb3b191b6828
:1035400000f0e5fc7b681b7804221340dbb2002b03
:1035500034d0bd4b1b681d007b685b689c46bb4a32
:10356000a823fc18ba4908236b4441c941c36346e8
:103570000193c82300932b0011685268200023f0a8
:10358000c1fe0300a2225200b9180b60bb181b68d1
:103590009c214900781803607b181b68db0fdbb2a5
:1035a000002b43d01400bb181b68aa4a032101203a
:1035b0001df0dafa3b191b6800f0a9fc7b681b7848
:1035c00002221340dbb2002b30d09f4b1b681c0043
:1035d0009e4aa823f8189e4908236b4460c960c31b
:1035e00001230193c823009323001168526823f03c
:1035f00089fe0300a2225200b9180b60bb181b6899
:103600009a214900781803607b181b68db0fdbb236
:10361000002b0bd01400bb181b688e4a032101201d
:103620001df0a2fa3b191b6800f071fc7b689b68d7
:10363000013341d0884bdb781b075b0fdbb29bb2b9
:1036400018002ff051fd0300a0225200b9180b60a2
:103650007b685b689c46bb181d68804aa823fc18e1
:103660007b4908236b4441c941c363460193c82386
:1036700000932b0011685268200023f043fe0300e2
:10368000a2225200b9180b60bb181b689821490090
:10369000781803607b181b68db0fdbb2002b50d05f
:1036a0001400bb181b686e4a032101201df05cfa50
:1036b0003b191b6800f02bfc7b681b78022213402f
:1036c000dbb2002b3dd0644bdb781b075b0fdbb21a
:1036d0009bb218002ff008fd0300a0225200b91879
:1036e0000b60bb181c685d4aa823f81858490823ca
:1036f0006b4460c960c301230193c8230093230076
:103700001168526823f0fefd0300a2225200b9188e
:103710000b60bb181b6896214900781803607b1862
:103720001b68db0fdbb2002b0bd01400bb181b682f
:103730004b4a032101201df017fa3b191b6800f0ca
:10374000e6fb7b681b7810221340dbb2002b3ad0db
:103750007b681b69dbb2180031f038f931f0bafe32
:1037600003001d007b685b689c463e4aa823fc184a
:10377000374908236b4441c941c363460193c823b9
:1037800000932b0011685268200023f0bbfd03005a
:10379000a2225200b9180b60bb181b689421490083
:1037a000781803607b181b68db0fdbb2002b5dd041
:1037b0001400bb181b682c4a032101201df0d4f90a
:1037c0003b191b68a3e37b681b7802221340dbb222
:1037d000002b4bd031f07efe03001c00214aa823b1
:1037e000f8181b4908236b4460c960c30123019387
:1037f000c823009323001168526823f083fd03005f
:10380000a2225200b9180b60bb181b689221490014
:10381000781803607b181b68db0fdbb2002b25d008
:103820001400bb181b68104a032101201df09cf9ed
:103830003b191b686be3c046d0210000f02100005b
:103840006038002018220000c8480020c05903003a
:10385000505a03005822000088100020005a03002c
:10386000a8220000105a0300f02200007b681b7899
:1038700002221340dbb2002b04d17b681b7b5bb2be
:10388000013325d07b681b7b5bb2be4aa821781828
:10389000116852682af0d6ff0300a2225200b9181c
:1038a0000b60bb181b6890214900781803607b18d7
:1038b0001b68db0fdbb2002b0ad01400bb181b689f
:1038c000b14a032101201df04ff93b191b681ee38b
:1038d0007b681b7802221340dbb2002b04d17b688b
:1038e0005b7b5bb2013325d07b685b7b5bb2a74a15
:1038f000a8217818116852682af0a4ff0300a222b8
:103900005200b9180b60bb181b688e21490078184b
:1039100003607b181b68db0fdbb2002b0ad014009e
:10392000bb181b689a4a032101201df01df93b19a1
:103930001b68ece27b681b7802221340dbb2002b91
:1039400004d17b689b7b5bb2013325d07b689b7b7a
:103950005bb2904aa8217818116852682af072ff69
:103960000300a2225200b9180b60bb181b688c21ff
:103970004900781803607b181b68db0fdbb2002b53
:103980000ad01400bb181b68834a032101201df0d4
:10399000ebf83b191b68bae27b681b7802221340e4
:1039a000dbb2002b06d17b681b7820221340dbb2f0
:1039b000002b34d0e0243b19784a110018002cf079
:1039c000f9fd3b19764aa8217c18694658680860b9
:1039d0001b6811685268200028f049fd0300a222ec
:1039e0005200b9180b60bb181b688a21490078186f
:1039f00003607b181b68db0fdbb2002b0ad01400be
:103a0000bb181b68674a032101201df0adf83b1964
:103a10001b687ce2644b5a7801210a435a707b6828
:103a20001b7840221340dbb2002b24d07b685b6afa
:103a30005e4aa8217818116852682af003ff030033
:103a4000a2225200b9180b60bb181b6888214900dc
:103a5000781803607b181b68db0fdbb2002b0ad0e1
:103a60001400bb181b68524a032101201df07cf88a
:103a70003b191b684be27b681b787f229343dbb2c8
:103a8000002b24d07b689b6a4a4aa82178181168c9
:103a900052682af0d7fe0300a2225200b9180b6028
:103aa000bb181b6886214900781803607b181b68c7
:103ab000db0fdbb2002b0ad01400bb181b683e4a98
:103ac000032101201df050f83b191b681fe27b68a1
:103ad0001b7802221340dbb2002b06d17b685b7897
:103ae00001221340dbb2002b70d07b685b7801228f
:103af0001340dbb2002b69d07b68da6a2f495c2463
:103b00003b19180031f0ddfb01202ff023f83b19a1
:103b1000190000202bf080f800202ff01bf87b68a4
:103b2000dd6a7b685b689c46254aa823fc1825490a
:103b300008236b4441c941c363460193c8230093e2
:103b40002b0011685268200023f0dcfb0300a22246
:103b50005200b9180b60bb181b6884214900781803
:103b600003607b181b68db0fdbb2002b2ed0140028
:103b7000bb181b68144a032101201cf0f5ff3b19f8
:103b80001b68c4e1085a030038230000f059030001
:103b90007c230000f8590300c02300004c4700209c
:103ba000185a0300082400009c100020205a03002b
:103bb00050240000285a0300a0240000f024000034
:103bc000305a0300505a0300002500007b681b7820
:103bd00002221340dbb2002b06d17b685b78022205
:103be0001340dbb2002b4cd07b685b780222134081
:103bf000dbb2002b45d07b681a6bc74948243b19c0
:103c0000180031f05efb01202ef0a4ff3b191900d3
:103c100000202bf001f800202ef09cff7b681d6b2c
:103c20007b685b689c46bd4aa823fc18bc490823f6
:103c30006b4441c941c363460193c82300932b00e1
:103c400011685268200023f05dfb0300a22252009d
:103c5000b9180b60bb181b68791dff310b607b1d09
:103c6000ff331b68db0fdbb2002b0ad01400bb183c
:103c70001b68ac4a032101201cf076ff3b191b682e
:103c800045e17b681b7802221340dbb2002b06d192
:103c90007b685b7804221340dbb2002b37d07b6853
:103ca0005a6ba14b1a60a04b1b681d007b685b68b8
:103cb0009c469e4aa823fc18994908236b4441c995
:103cc00041c363460193c82300932b0011685268d7
:103cd000200023f017fb0300a2225200b9180b604a
:103ce000bb181b68791cff310b607b1cff331b6802
:103cf000db0fdbb2002b0ad01400bb181b688c4a08
:103d0000032101201cf030ff3b191b68ffe07b689a
:103d10001b7802221340dbb2002b67d0854ba42214
:103d200052009446bc44634400221a605a609a6070
:103d3000da601a820c23fb18180019f0a5fc7e4be0
:103d4000a42252009446bc4463441b791c007a4b65
:103d5000a42252009446bc4463445b791d00764b18
:103d6000a42252009446bc4463449b791a00724bcf
:103d7000a42149008c46bc4463441b8c6f49342603
:103d8000b819019300922b00220031f09afae8242e
:103d90003b19ba19110018002cf00cfc3b19684aa9
:103da000a8217c186946586808601b681168526829
:103db000200028f05cfb0300a2225200b9180b601f
:103dc000bb181b68fc21781803607b181b68db0f8d
:103dd000dbb2002b0ad01400bb181b68594a032120
:103de00001201cf0c1fe3b191b6890e0a823fa18c3
:103df000554b110018002df097f90300a222520034
:103e0000b9180b60bb181b68f821781803607b1881
:103e10001b68db0fdbb2002b0ad01400bb181b6839
:103e20004a4a032101201cf09ffe3b191b686ee0eb
:103e3000a823fb18f422b9180b60bb181b689b68f9
:103e400090243819ba181268009300231168526838
:103e50001af0fefc70203b1821007a1830ca30c3db
:103e60003b185b681a0080239b009a420dd978208a
:103e70003b187a1812ca12c33b185b68344a0321f4
:103e800001201cf071fe334b41e0a0243b191800c7
:103e900028f006f830493a192b4800230193802373
:103ea00000930b00116852682ff02efb0300a22430
:103eb00064003a1913603b191b68f022b9180b60b3
:103ec000bb181b68db0fdbb2002b08d0234b1a009a
:103ed000032101201cf048fe3b191b6817e08821d4
:103ee0007b1890203a1830ca30c37b181968802498
:103ef0003b193a1821ca21c33b195b689ab216488c
:103f000001232ff0e5fca2235b00fb181b681800bf
:103f1000bd4653b0f0bdc04650250000385a0300de
:103f2000505a030060250000d4480020485a03007e
:103f3000b0250000ecfeffffc4feffff04260000da
:103f4000405a030010260000f80200205c26000002
:103f5000982600000200018014400020bc260000ca
:020000040000fa
:103f60001b5b33376d20204e4f4e451b5b33376d47
:103f70000000c0461b5b33316d204552524f521b2f
:103f80005b33376d0000c0461b5b33336d20205719
:103f900041524e1b5b33376d0000c0461b5b33360e
:103fa0006d2044454255471b5b33376d0000c046ca
:103fb0001b5b33376d2020494e464f1b5b32376dfc
:103fc0001b5b33376d00c0461b5b33376d20494e9a
:103fd000464f1b5b33376d001b5b33326d20474f01
:103fe0004f441b5b33376d001b5b33336d205741f0
:103ff000524e1b5b33376d001b5b33316d1b5b37e0
:104000006d4552524f521b5b32376d1b5b33376d20
:104010000000c046696e697469616c5f6765740011
:10402000322e3000322e302e3000c04670726f704b
:10403000657274790000c0463a2053656e64206151
:104040006e64207265636569766520646576696370
:10405000652070726f70657274792066726f6d2062
:10406000636c6f7564202f2f55736167653a2070fc
:10407000726f7065727479203c696e6465783e2c4d
:10408000203c6461746128686578293e0000c04660
:1040900074656c656d6574727900c0463a2053652d
:1040a0006e64206461746120746f20636c6f75644a
:1040b0002061732074656c656d65747279202f2f93
:1040c00055736167653a2074656c656d65747279c6
:1040d000203c696e6465783e2c203c6461746128e4
:1040e000686578293e00c046696473636f70650037
:1040f0003a2047657420616e642053657420417acc
:10410000757265204450532049442053636f706595
:10411000202f2f55736167653a20696473636f7050
:1041200065205b49442053636f70655d0000c046a5
:104130007265636f6e6e65637400c0463a204d51c0
:104140005454205265636f6e6e6563742000c046e0
:10415000776966690000c0463a2053657420576944
:1041600066692063726564656e7469616c73202f83
:104170002f55736167653a2077696669203c7373d0
:1041800069643e5b2c3c706173733e2c5b6175749b
:1041900068547970655d5d200000c046636c6f7582
:1041a0006400c0463a20476574204d515454204362
:1041b0006f6e6e656374696f6e205374617475738e
:1041c0000000c0466b6579003a204765742045437e
:1041d00043205075626c6963204b65792000c046ae
:1041e00064657669636500003a204765742045433d
:1041f000432053657269616c204e6f2e2000c046cb
:10420000636c695f76657273696f6e003a2047650b
:104210007420434c492076657273696f6e200000ec
:1042200076657273696f6e003a204765742046693f
:10423000726d776172652076657273696f6e2000aa
:10424000646562756700c0463a2047657420616ef8
:104250006420536574204465627567204c657665fb
:104260006c2000000d0a4465766963652049440da1
:104270000a00c0460d0a4f4b0d0a04000d0a556e88
:104280006b6e6f776e2e0d0a0000c0460d0a434c10
:10429000492056657273696f6e0d0a000d0a4669f2
:1042a000726d776172652056657273696f6e0d0a63
:1042b0000000c04625730d0a0000c0460d0a536574
:1042c00074204465627567204c6576656c0d0a0044
:1042d0000d0a43757272656e74206465627567209d
:1042e0006c6576656c2025730d0a04000d0a446523
:1042f000627567206c6576656c206d7573742062dd
:1043000065206265747765656e203020284c656194
:1043100073742920616e64203520284d6f737429d1
:10432000200d0a000d0a4f4b0d0a00000d0a5769b7
:10433000466920636f6d6d616e640d0a20205365c0
:104340007420576946692070616972696e67202020
:10435000203a202d736574203c737369643e5b2c96
:104360003c706173733e2c5b617574685479706541
:104370005d5d0d0a2020476574205769466920530a
:104380007461747573202020203a202d7374617439
:1043900075730d0a20205363616e2041636365735a
:1043a0007320506f696e7473203a202d7363616eb1
:1043b0000d0a04002c00c0463100c04625640000f0
:1043c0000d0a4572726f722e2057692d466920635f
:1043d0006f6d6d616e6420666f726d6174206973bc
:1043e0002077696669203c737369643e5b2c3c707e
:1043f0006173733e2c5b61757468547970655d5da3
:104400000d0a04002d7363616e00c0462d73746144
:10441000747573002d7365740000c0467472756501
:104420000d0a040066616c73650d0a040000c04645
:104430000d0a4572726f722067657474696e672029
:104440006b65792e0d0a00000d0a4765742f5365c0
:1044500074204450532049442053636f70650d0a03
:104460000000c04643757272656e74204944205343
:10447000636f7065203a202573200d0a0000c04646
:104480004e65772049442053636f70652025732063
:104490000d0a0000496e76616c696420494420531e
:1044a000636f7065203a202573200d0a0000c04616
:1044b00049442053636f706520656e74657265644e
:1044c000203a2025732e204e6f6e2d616c7068612e
:1044d000206e756d6265726963206c6574746572b7
:1044e0002064657465637465642e202053686f755d
:1044f0006c6420626520306e65585858585858587a
:104500005820666f726d61740d0a000057726974ed
:10451000696e672049442053636f706520257320be
:10452000746f20415443410d0a00c0464e65772008
:1045300049442053636f7065203a2025730d0a00ab
:104540000d0a53656e642054656c656d65747279ef
:10455000203c496e6465783e2c3c446174613e00a9
:104560000d0a20496e6465783a20416374696f6e64
:10457000205b4578616d706c655d00000d0a203030
:104580003a2052657365742044656469636174659b
:10459000642054656c656d6574727920496e74652c
:1045a0007266616365202844544929205b652e6743
:1045b0002e2074656c656d6574727920302c305dc9
:1045c0000000c0460d0a20317e343a2055706461e7
:1045d0007465205369676e656420496e746567650c
:1045e0007220696e206865782028342062797465ad
:1045f00073206d617829205b652e672e2074656cb1
:10460000656d6574727920322c43414645424545bb
:10461000465d00000d0a20357e363a2055706461f3
:10462000746520446f75626c6520696e20686578da
:1046300020283820627974657329205b652e672ee7
:104640002074656c656d6574727920352c46353340
:10465000374130323143463031354234345d000029
:104660000d0a20377e383a20557064617465204603
:104670006c6f617420696e20686578202834206230
:104680007974657329205b652e672e2074656c65cf
:104690006d6574727920382c3431383334354531b6
:1046a0005d00c0460d0a20393a205570646174657a
:1046b000204c6f6e6720696e20686578202838204e
:1046c0006279746573206d617829205b652e672e91
:1046d0002074656c656d6574727920392c43414690
:1046e000453132333442454546353637385d000072
:1046f0000d0a2031303a2055706461746520426f94
:104700006f6c65616e2028747275652f66616c73bd
:104710006529205b652e672e2074656c656d657458
:1047200072792031302c747275655d000d0a20316c
:10473000317e31343a20557064617465205374724f
:10474000696e6720286e6f207370616365732c201b
:104750003637206368617273206d617829205b654c
:104760002e672e2074656c656d6574727920313307
:104770002c48656c6c6f5f576f726c642121215df2
:104780000000c0460d0a496e76616c696420636f53
:104790006d6d616e6420706172616d657465720d1e
:1047a0000a0400000d0a496e76616c696420636f2b
:1047b0006d6d616e6420696e6465782070617261f0
:1047c0006d657465720d0a040000c0460d0a496edd
:1047d00076616c696420636f6d6d616e6420696ed3
:1047e00064657820706172616d657465722e0d0a62
:1047f0000400c0460d0a55706461746520526561fd
:1048000064204f6e6c792050726f706572747920dd
:104810003c496e6465783e2c3c446174613e000006
:104820000d0a2020496e646578207c204461746103
:104830002028696e2048657829207c205772697489
:1048400061626c652028627920436c6f7564290071
:104850000d0a202031207e2032207c20696e746574
:10486000676572202020202020207c2066616c73e8
:104870006500c0460d0a202033207e2034207c2095
:10488000696e7465676572202020202020207c20be
:08489000747275650000c0465a
:020000040000fa
:10489800f0b5e3b004aff860ca48bc246400a4468d
:1048a800bc446044016042603b60fb68002b03d15c
:1048b80030f030fd03009847bc23fb18fa6803caa0
:1048c80003c30123a82149007a1813605023ff333a
:1048d800fb1800221a707b181b68002b01da0023d2
:1048e800a8e0b4217b18bc203a1830ca30c37b1822
:1048f8001b68a42149007a181360ac243b193a18a4
:1049080021ca21c33b195b68a2225200ba1813605e
:104918004423ff33fb1800221a70f4203b180022ae
:104928001a605a60a4243b193a1821ca21c33b19ba
:104938001b689e2040003a1813605023ff33fb1871
:104948001b78002b1dd07b181b68002b05d07b180b
:104958001a683b181b689a4207d1a2235b00fb1810
:104968001b685a425341dbb206e0a2235b00fb18e6
:104978001b68db43db0fdbb24422ff32ba1813702b
:104988001ee0a4225200bb181b68002b0fd0bb18d6
:104998001a689e235b00fb181b689a4207d0a22363
:1049a8005b00fb181b68002b01db012200e00022e2
:1049b8004423ff33fb181a701a7801210a401a7031
:1049c80001235b429c225200b9180b604423ff3339
:1049d800fb181b78002b0fd0bb181a68a4235b00a8
:1049e800fb181b68d31a1a00a2235b00fb181b686c
:1049f8009a4201d3012200e000224420ff303b18f4
:104a08001a701a7801210a401a703b181b78002b7b
:104a18000bd0a8235b00fb181a68a2235b00fb18c5
:104a28001b689a4201dc012300e000231a1c0123c1
:104a38001340dbb201225340dbb2002b03d030f02d
:104a480069fc03009847dc23f9185e4bbc2252002e
:104a5800ba18d2180b0003ca03c301239a214900cc
:104a68007a1813603423ff33fb1800221a707b185e
:104a78001b68002b01da0023abe0d4217b18dc2073
:104a88003a1830ca30c37b181b68962149007a1837
:104a98001360cc243b193a1821ca21c33b195b681f
:104aa80094225200ba1813602823ff33fb180022ff
:104ab8001a70fc203b1800221a605a60c4243b1963
:104ac8003a1821ca21c33b191b68902040003a18a4
:104ad80013603423ff33fb181b78002b1dd07b1881
:104ae8001b68002b05d07b181a683b181b689a4274
:104af80007d194235b00fb181b685a425341dbb271
:104b080006e094235b00fb181b68db43db0fdbb27a
:104b18002822ff32ba1813701ee096225200bb18e2
:104b28001b68002b0fd0bb181a6890235b00fb187a
:104b38001b689a4207d094235b00fb181b68002b64
:104b480001db012200e000222823ff33fb181a7042
:104b58001a7801210a401a7001235b428e22520002
:104b6800b9180b602823ff33fb181b78002b0fd0d4
:104b7800bb181a6896235b00fb181b68d31a1a0027
:104b880094235b00fb181b689a4201d3012200e0c2
:104b980000222820ff303b181a701a7801210a4099
:104ba8001a703b181b78002b0ed09a235b00fb1859
:104bb8001a6894235b00fb181b689a4204dc0123e3
:104bc80003e0c0468cfeffff00231a1c012313409c
:104bd800dbb201225340dbb2002b03d030f09afb4a
:104be800030098473b68002b03d130f093fb030088
:104bf800984780235b02ba225200ba181360ee4b22
:104c0800ee4abc246400391989181a685b68086878
:104c1800496821f077fe0300b8267600ba191360b8
:104c2800bb191b68002b00da20e2e44bbc225200bf
:104c38009446bc446344e24819685a6819f076fc03
:104c480001235b42b6256d007a1913609420391848
:104c5800da4b3a19d2180b0012ca12c33b185b6818
:104c68009c221400b818b9190968d44abc267600e1
:104c7800b446bc44624400930b001168526819f0b2
:104c8800e3fdd04b2200b9181a685b6808684968c8
:104c980021f038fe03007a1913607b191b68002b7a
:104ca80000da12e100239026ba191360c64bbc2221
:104cb80052009446bc446344c24a03ca03c3c24b6d
:104cc800bc2252009446bc4463445a687b191b6852
:104cd800d118be4bbc2464003a19d018b74b3a1906
:104ce800d218030011ca11c3b84bbc225200944613
:104cf800bc4463445b68e4257819b04abc2464006a
:104d0800a446bc44624400930b001168526819f031
:104d18009bfdec217b18ae4a11ca11c38023fc18f5
:104d28007b187a19b9190291882179180191694675
:104d3800586808601b681168526820000af05cfa1d
:104d48000023fb677c22ba188023fb18186859686f
:104d580012f0c2fd0300b4225200b9180b60bb1850
:104d68001b688c214900781803607b181b68db0fcf
:104d7800dbb2002b02d0bb181b6880e1fb6f9ab234
:104d88003b685a819023fb181b68013301d1914b72
:104d980075e1914bbc2252009446bc44634488217f
:104da8007a1811ca11c38c4bbc2252009446bc44d9
:104db80063445b68894abc246400381980187a18ef
:104dc800009301231168526819f03efd844b2000be
:104dd8003a18d118814b3a18d2180b0012ca12c3cc
:104de8007f4bbc2252009446bc44634459687b4bb9
:104df8003a18d2186c23f8180b00116852681bf087
:104e080017f90300b2225200b9180b60bb181b68cf
:104e18008a214900781803607b181b68db0fdbb216
:104e2800002b02d0bb181b6829e13b686d4a6c2136
:104e38007818116852680ef05bfd0300b02252002a
:104e4800b9180b60bb181b688821490078180360e3
:104e58007b181b68db0fdbb2002b02d0bb181b686a
:104e68000de13b685b89cc2b1fd13b6803221a728a
:104e78003b680c335c4a6c217818116852680ef054
:104e880037fd0300ae225200b9180b60bb181b682f
:104e980086214900781803607b181b68db0fdbb29a
:104ea800002b0bd0bb181b68e9e03b6801221a7283
:104eb8003b680022da603b6800221a6180235b02ab
:104ec800ba225200ba181360d5e0484b9c22b91890
:104ed8001a685b680868496821f014fd0300b62168
:104ee80049007a1813607b181b68002b00dab7e0ba
:104ef8003f4bbc2252009446bc4463443b4a11ca0f
:104f080011c33b4bbc2252009446bc4463445a68cc
:104f18007b181b68d318591c364bbc2464003a19fb
:104f2800d018264b3a19d218030021ca21c3314b95
:104f3800bc2252009446bc4463445b682e4a38192c
:104f480080181e4abc256d00ac46bc4462440093e0
:104f58000b001168526819f077fc284b3a19d118e0
:104f6800254b20003a19d2180b0012ca12c3234b42
:104f7800bc2252009446bc44634459681e4b3a18fc
:104f8800d2183423f8180b00116852681bf050f837
:104f98000300ac225200b9180b60bb181b688421af
:104fa8004900781803607b181b68db0fdbb2002b05
:104fb80026d0bb181b6862e0885803008cfefffff0
:104fc8000100060090580300dcfeffffd4feffff3f
:104fd800ccdd020006000180e4feffffecfeffffcf
:104fe800ccfeffff80580300a0580300b058030010
:104ff800acfeffffa4feffffb4feffff9cfeffff19
:105008003b680c33204a34217818116852680ef036
:105018006ffc0300aa225200b9180b60bb181b686a
:10502800791dff310b607b1dff331b68db0fdbb283
:10503800002b02d0bb181b6821e03b6802221a72c1
:105048003b6800221a603b6800225a603b68c8220d
:105058005a8180235b02ba225200ba1813600ae010
:105068000a4bba225200ba18136004e0074bba225e
:105078005200ba181360ba235b00fb181b681800ab
:10508800bd465fb0f0bdc046a058030001000580d2
:020000040000fa
:10509800f0b5cb4ca54402af02003960c94b802162
:1050a80089008c46bc4463441a70c74bfc225200ea
:1050b800ba1813603b68002b00d19ee3c14b8022d5
:1050c80092009446bc4463441b78043b2e2b00d9c1
:1050d80095e39a00bd4bd3181b689f463b68fa219d
:1050e80049007a181360fc2040003b181b68db79e4
:1050f80001225340dbb2002b00d082e33b181b682f
:105108000022da717b181b685b785bb2002b25d113
:105118007b181b681a783b181b685a727b181b6827
:105128001b78002b06d03b181b681b7a18002cf044
:1051380014fc68e3fc2149007b181b6880229b58fb
:10514800002b00d15fe37b181b6880229c587b18da
:105158001868002300220021a04754e3fc235b00c9
:10516800fb181b6800225a724de33b68f8256d0056
:105178007a191360fc2464003b191b680b33180070
:105188007b191b6804330622190030f03afa3b19e0
:105198001b68113318007b191b680a332022190079
:1051a80030f02ffa7b191b680a33180030f09cfa8c
:1051b8000300d9b23b191b68312299547b191b682b
:1051c800012159563b191b68322299547b191b68d7
:1051d80099783b191b68332299547b191b68d97835
:1051e8002600bb191b6834229954bb191b6801227d
:1051f8009a72bb191b6880229b58002b00d104e3cc
:10520800bb191b6880229d58bb191868bb191b68fd
:105218001b7a0133d9b2bb191b685a7abb191b68b0
:105228000b33f024ff343c19a84703002370f02403
:10523800ff343b191b78002b22d0bb191b681b7a43
:105248000133dab2bb191b681a72bb191b681c7ac6
:1052580030f06af803009c420ad2bb191b681b7a1b
:1052680018002cf07afbbb191b6800229a72cce25a
:10527800fc235b00fb181b68802200219950c4e2c4
:10528800fc235b00fb181b68802200219950bce2bc
:105298003b68f4225200b9180b60bb181b681b78d6
:1052a800012b1ad1fc2149007b181b6801229a7135
:1052b8007b181b689a229b5c01225340dbb2002baf
:1052c8001dd07b181b689c229b58002b17d07b187d
:1052d8001b6899220121995411e0f4235b00fb1803
:1052e8001b681b78002b0ad1fc2149007b181b681e
:1052f80000229a717b181b684c2200219954fc21ca
:1053080049007b181b6884229b58002b00d17ee241
:105318007b181b6884229b587a181068f424640050
:105328003a19126811783a191268527898476ee259
:105338003b68f22149007a181360fc235b00fb18d4
:105348001b6884229b58002b00d162e27b181b68e3
:105358001b785bb21a00163210d01a00163202dc23
:10536800173306d019e01a0015320cd014330fd0b9
:1053780013e0174bfb1805221a7013e0144bfb18a7
:1053880003221a700ee0124bfb1801221a7009e072
:105398000f4bfb1806221a7004e00d4bfb1807226e
:1053a8001a70c046fc2149007b181b6884229b5850
:1053b8007a181068064aba1812780021984728e225
:1053c800f4fdffff07feffff603b00209c960200f4
:1053d800ff0100003b68f0225200ba181360fc215c
:1053e80049007b181b681b7901225340dbb2002b54
:1053f80004d07b181b68992201219954f021490097
:105408007b181b6803331b781a067b181b6802334a
:105418001b781b041a437b181b6801331b781b027b
:1054280013437a18126812781a43fc2040003b187c
:105438001b689c215a5001007b181b68b0229b589e
:10544800002b00d1e7e17b181b68b0229b587a1823
:1054580010687a1812689c21525811009847dae1ae
:105468003b68ee225200b9180b60bb181b68180085
:1054780028f060fd0300ec2040003a181360fc217e
:1054880049007b181b6888229b58002b00d1c4e177
:105498007b181b6888229b587a1812683918096883
:1054a80010009847b9e1fc235b00fb181b68b82281
:1054b8009b58002b00d1b2e13b68ea2464003a19fa
:1054c80013603b191b68180030f00ef90300d9b2bd
:1054d800db4b802292009446bc44634420229954ba
:1054e800d74b802292009446bc44634420229b5ca4
:1054f800202b00d995e10c257b19202200211800ca
:1055080030f0eaf83b191968cd4b80229200944696
:10551800bc44634420229b5c1a007b19180030f0bd
:1055280070f83b191b6862229a5cc64b802189007f
:105538008c46bc4463441a703b191b6862229b5c0e
:10554800022b27d13b191b682133180030f0ccf807
:105558000300dab2bb4b802189008c46bc4463440b
:105568001a7138257b19053340220021180030f0c4
:10557800b3f83b191b6821331900b24b8022920003
:105588009446bc4463441b791a007b190533180000
:1055980030f037f8fc256d007b191b68b8229c5841
:1055a8007b191868ea235b00fb181b6863229b5c65
:1055b8005a425341dbb23822ba180c217918a04755
:1055c8007b191b68b8220021995028e13b68e8251f
:1055d8006d007a1913607b191b68180030f084f885
:1055e8000300d9b2fc2464003b191b686d2299544e
:1055f8003b191b686d229b5c202b00d913e13b19da
:105608001b684d3320220021180030f065f83b1943
:105618001b684d3318007b1919683b191b686d22ec
:105628009b5c1a002ff0edff7b191b682122995c07
:1056380020003b181b687c2299547b191b68252283
:105648009b5c1a067b191b6824215b5c1b041a43ac
:105658007b191b6823215b5c1b0213437a191268b0
:105668002221525c1a433b181b681a6704003b1836
:105678001b68743318007a19136826330622190038
:105688002ff0bfff3a1913684c22012199542100c9
:105698007a1813688c229b58002b00d1c5e07a1821
:1056a80013688c229c580a00b9180868b9180b6846
:1056b80019004d31be18336870331d00ba181368cd
:1056c8007c229e5ce8235b00fb181b682c229b56ff
:1056d800009333002a00a047a7e03b68e622520067
:1056e800b9180b60bb181b6800215956fc246400cc
:1056f8003b191b68442299543b191b6890229b58fc
:10570800002b00d193e03b191b6890229b583a1953
:1057180010683a19126844215256110098473b19eb
:105728001b6890220021995081e03b68e4256d00b8
:105738007a191360fc235b00fb181b6894229b58a2
:10574800002b00d175e00c26bb1918002cf02af9a3
:105758007b191b689c1c7b191b68023318002ff0ef
:10576800c3ff0300dab2bb192100180028f04eff6e
:105778007b191b685a78bb19110018002af04efad9
:105788007b191b681b78012b02d0022b06d01ae06c
:105798003823fb1818002ff041f820e0e4225200cb
:1057a800bb181b6823331c00bb181b682333180065
:1057b8002ff09aff0300dab23823fb1821001800f3
:1057c8002af0fcf90be0fc2149007b181b689422a5
:1057d8009b587a1810680022002198472ae0fc217b
:1057e80049007b181b6894229b587a181068382245
:1057f800ba180c21791898471be0c0461ae0c04631
:1058080018e0c04616e0c04614e0c04612e0c046a4
:1058180010e0c0460ee0c0460ce0c0460ae0c046b4
:1058280008e0c04606e0c04604e0c04602e0c046c4
:1058380000e0c046bd4681239b009d44f0bdc046a4
:085848000cfeffff38feffff1c
:020000040000fa
:10585000f0b5ddb004aff860b9607a60fb6818009d
:105860002ff046ff03001a00f8243b19f9681800ce
:105870002cf0c8fff023fb18ba68110018002af0ba
:1058800099fed4257b193a19d9481168526817f046
:10589000cfff0300ae225200b9180b60bb181b6883
:1058a000a8225200b9180b60bb181b68a622520030
:1058b000b9180b60bb181b68db0fdbb25a1e934193
:1058c000dbb201225340dbb21a1c01231340dbb2ce
:1058d000002b26d0c74bb02252009446bc446344f0
:1058e0003a1903ca03c3c34bb02252009446bc44c6
:1058f00063441b68c04a002105201bf035f97b1961
:105900001b78be4a002105201bf02ef9bb68bc4a5b
:10591000002105201bf028f97b191b78012b33d1be
:1059200014e0ae2464003b191b68b64a0321012031
:105930001bf01af9f968b44abb6800930b00032105
:1059400001201bf011f93b191b6853e3af4bd42224
:10595000b9181a685b684868896822f065fa031efe
:105960000bd0ab4b1a00002104201bf0fdf87b6824
:105970001a7802210a431a7087e0a64b1a00002108
:1059800004201bf0f1f880e0d4203b181b78022b98
:105990001ad13b185b8819009f4bb0225200ba18ed
:1059a000d2183b180c3311cb11c29b4bb0225200c2
:1059b0009446bc4463441b68984a00930b00002142
:1059c00004201bf0d1f860e0d4203b181b78032b97
:1059d00032d13b185a88a52149007b181a807b18c0
:1059e0001a889023ff331900002391425b41dbb2f8
:1059f00001225340dbb2002b19d03b185b88190001
:105a0000874bb0225200ba18d2183b180c3311cb76
:105a100011c2834bb02252009446bc4463441b68bd
:105a2000804a00930b00002104201bf09df8ae2358
:105a30005b00fb181b68dde2d4257b191b781c007a
:105a40007b195b88180068217a187b19043342cbd4
:105a500042c268217b181968734bb0225200ba18f1
:105a6000d2187b190c3360cb60c26f4bb02252004e
:105a70009446bc4463441b686c4a029301910090b5
:105a80002300002104201bf06ff8f023fa18702384
:105a9000f81800231168526823f064fb0300ae2459
