:020000040000fa
:080000000001040000000000f3
:020000040000fa
:040008001c020000d6
:020000040000fa
:04000c005e02000090
:020000040000fa
:040010009e0200004c
:020000040000fa
:040014003c020000aa
:020000040000fa
:040018007e02000064
:020000040000fa
:04001c004403000099
:020000040000fa
:040020004403000095
:020000040000fa
:040024004403000091
:020000040000fa
:04002800440300008d
:020000040000fa
:04002c004403000089
:020000040000fa
:040030004403000085
:020000040000fa
:040034000e030000b7
:020000040000fa
:04003800440300007d
:020000040000fa
:04003c004403000079
:020000040000fa
:040040004403000075
:020000040000fa
:040044004403000071
:020000040000fa
:04004800440300006d
:020000040000fa
:04004c004403000069
:020000040000fa
:040050004403000065
:020000040000fa
:040054004403000061
:020000040000fa
:04005800440300005d
:020000040000fa
:04005c004403000059
:020000040000fa
:040060004403000055
:020000040000fa
:040064004403000051
:020000040000fa
:04006800440300004d
:020000040000fa
:04006c004403000049
:020000040000fa
:040070004403000045
:020000040000fa
:04007400be020000c8
:020000040000fa
:04007800440300003d
:020000040000fa
:04007c004403000039
:020000040000fa
:040080004403000035
:020000040000fa
:040084004403000031
:020000040000fa
:04008800440300002d
:020000040000fa
:04008c004403000029
:020000040000fa
:040090004403000025
:020000040000fa
:040094004403000021
:020000040000fa
:04009800440300001d
:020000040000fa
:04009c004403000019
:020000040000fa
:0400a0004403000015
:020000040000fa
:0400a4004403000011
:020000040000fa
:0400a800440300000d
:020000040000fa
:0400ac004403000009
:020000040000fa
:0400b0004403000005
:020000040000fa
:0400b4004403000001
:020000040000fa
:0400b80044030000fd
:020000040000fa
:0400bc0044030000f9
:020000040000fa
:0400c00044030000f5
:020000040000fa
:0400c40044030000f1
:020000040000fa
:0400c80044030000ed
:020000040000fa
:0400cc0044030000e9
:020000040000fa
:0400d00044030000e5
:020000040000fa
:0400d40044030000e1
:020000040000fa
:0400d80044030000dd
:020000040000fa
:0400dc0044030000d9
:020000040000fa
:0400e00044030000d5
:020000040000fa
:0400e40044030000d1
:020000040000fa
:0400e80044030000cd
:020000040000fa
:0400ec0044030000c9
:020000040000fa
:0400f00044030000c5
:020000040000fa
:0400f40044030000c1
:020000040000fa
:0400f80044030000bd
:020000040000fa
:0400fc0044030000b9
:020000040000fa
:0401000044030000b4
:020000040000fa
:0401040044030000b0
:020000040000fa
:0401080044030000ac
:020000040000fa
:04010c0044030000a8
:020000040000fa
:0401100044030000a4
:020000040000fa
:0401140044030000a0
:020000040000fa
:04011800440300009c
:020000040000fa
:04011c004403000098
:020000040000fa
:040120004403000094
:020000040000fa
:040124004403000090
:020000040000fa
:04012800440300008c
:020000040000fa
:04012c004403000088
:020000040000fa
:040130004403000084
:020000040000fa
:040134004403000080
:020000040000fa
:04013800440300007c
:020000040000fa
:04013c004403000078
:020000040000fa
:040140004403000074
:020000040000fa
:040144004403000070
:020000040000fa
:04014800440300006c
:020000040000fa
:04014c004403000068
:020000040000fa
:040150004403000064
:020000040000fa
:040154004403000060
:020000040000fa
:04015800440300005c
:020000040000fa
:04015c004403000058
:020000040000fa
:040160004403000054
:020000040000fa
:040164004403000050
:020000040000fa
:04016800440300004c
:020000040000fa
:04016c004403000048
:020000040000fa
:040170004403000044
:020000040000fa
:040174004403000040
:020000040000fa
:04017800440300003c
:020000040000fa
:04017c004403000038
:020000040000fa
:040180004403000034
:020000040000fa
:040184004403000030
:020000040000fa
:04018800440300002c
:020000040000fa
:04018c004403000028
:020000040000fa
:040190004403000024
:020000040000fa
:040194004403000020
:020000040000fa
:04019800440300001c
:020000040000fa
:04019c004403000018
:020000040000fa
:0401a0004403000014
:020000040000fa
:0401a4004403000010
:020000040000fa
:0401a800440300000c
:020000040000fa
:0401ac004403000008
:020000040000fa
:0401b0004403000004
:020000040000fa
:0401b4004403000000
:020000040000fa
:0401b80044030000fc
:020000040000fa
:0401bc0044030000f8
:020000040000fa
:0401c00044030000f4
:020000040000fa
:0401c40044030000f0
:020000040000fa
:0401c80044030000ec
:020000040000fa
:0401cc0044030000e8
:020000040000fa
:0401d00044030000e4
:020000040000fa
:0401d40044030000e0
:020000040000fa
:0401d80044030000dc
:020000040000fa
:0401dc0044030000d8
:020000040000fa
:0401e00044030000d4
:020000040000fa
:0401e40044030000d0
:020000040000fa
:0401e80044030000cc
:020000040000fa
:0401ec0044030000c8
:020000040000fa
:0401f00044030000c4
:020000040000fa
:0401f40044030000c0
:020000040000fa
:0401f80044030000bc
:020000040000fa
:0401fc0044030000b8
:020000040000fa
:100200000f0421000e7f24000e0188000000000072
:10021000000020000000e000020032000001200089
:100220002002880014000700190107000000e00008
:1002300003003a00008b200001002000020037007c
:100240000000200001002000810f7000010032003a
:1002500014000700000020000000e000020032004f
:1002600000000200000000009004020000000000f6
:100270000040da000000fe004440a900c001200058
:100280000000e00003003200002020009001880000
:100290004440a800000006008a1f78008b1f7800e9
:1002a00000000600a1028800800478000000eb0036
:1002b0001f003700e284440054a0b4009905ba003e
:1002c000e284440054a0b4009906ba00e2844400d9
:1002d00054a0b4000006eb00476fde00fd07b2003b
:1002e000ae018800636ce10003003a00eaff0700fa
:1002f0000000eb000e003700606ce10008003a00df
:10030000004deb000a05e800020039003420ec0043
:100310000af0a0008b05e900f9ff3e000400370059
:100320006168e100010032000086eb000b0007006d
:1003300019c7ba001905ba000e04e00003003a001c
:100340000a00e000dbff3a0000000600fe07b200f2
:10035000ae0288008a047800f5ff37000cd0a300b5
:10036000e20f4d001c00390089027800354dba00bb
:100370000a05e800020039003420ec000af0a00071
:100380008b05e9000f003200254dba000a05e80090
:10039000020039003420ec000af0a0008b05e900cf
:1003a000080032000c00e0000600320015cdba0053
:1003b0000a05e800020039003420ec000af0a00031
:1003c0008b05e9008984e80054a0b4000b00e0002c
:1003d000e2ff3a00000006009902ba00055d7800cd
:1003e0008b05e900f7ff3200c82ade00055d7800c2
:1003f0008b05e900f3ff32000c00e000f1ff320052
:1004000019ddba00eeff37006e070400000000009f
:1004100074070400000000000a0804000000000047
:1004200042040400000000004c040400000000002e
:1004300056040400000000003600f800809fbe0053
:10044000829fbe00849fbe00869fbe000000fa000f
:100450008020a9000000eb006b0307000080fa0079
:100460004f03be004f02be004f01be004f00be0052
:100470003600f900004006003600f800809fbe00fc
:10048000829fbe00849fbe00869fbe000000fa00cf
:10049000620307008040a900100020005a030700f3
:1004a0000080fa004f03be004f02be004f01be00a5
:1004b0004f00be003600f900004006003600f8008c
:1004c000809fbe00829fbe00849fbe00869fbe00ac
:1004d0000000fa008060a900200020004a03070005
:1004e0000080fa004f03be004f02be004f01be0065
:1004f0004f00be003600f900004006003600f8004c
:10050000809fbe00829fbe00849fbe00869fbe006b
:100510000000fa008080a900300020003a030700a4
:100520000080fa004f03be004f02be004f01be0024
:100530004f00be003600f900004006003600f8000b
:10054000809fbe00829fbe00849fbe00869fbe002b
:100550000000fa008600a900700020002a030700ae
:100560000080fa004f03be004f02be004f01be00e4
:100570004f00be003600f900004006003600f800cb
:10058000809fbe00829fbe00849fbe00869fbe00eb
:100590000000fa0050048000680060000000e000e5
:1005a00017003200813380000008200000806000c6
:1005b0000000e00006003200704080000000e00013
:1005c00002003200704080000000010070e6a900c7
:1005d0008133800000402000008060000000e000c7
:1005e00006003200804080000000e000020032007f
:1005f00080408000000001007146a9008a60a900c7
:100600000080fa004f03be004f02be004f01be0043
:100610004f00be003600f900004006003600f8002a
:10062000809fbe00829fbe00849fbe00869fbe004a
:100630000000fa00a04080000000e000020032004c
:10064000a040800000000100f0032100104078006d
:100650008040e800f003210001487800e003210019
:1006600011c0b300014878008860a9000080fa003a
:100670004f03be004f02be004f01be004f00be0040
:100680003600f900004006000040da000000fe00dd
:040690000000050061
:020000040000fa
:100694000400000004000000040000000400000046
:1006a400080000000800000004000000040000002e
:1006b4000800000004000000000400000004000022
:0806c400000400000004000026
:020000040000fa
:1006cc000600fa002047980031479800220798004e
:1006dc0060812000ae4090000148780070812000bd
:1006ec003e419000024878002e0090004800de0049
:1006fc008040780080812000014878002e00900016
:10070c008040780090812000014878004000200053
:10071c00000f7800070037003e40900062c2b30023
:10072c0082404000608120001e004000014878009b
:10073c001e0fe800304020009e007800808f500093
:10074c00f5ff3600a081200031c5b30001487800c8
:10075c00b081200041c5b30001487800c081200061
:10076c0011c4b30001487800d081200021c5b3002a
:10077c0001487800e081200041c5b30001487800b1
:10078c003e409000ea4f500011003a00a08120003a
:10079c0041c7b30001487800b081200021c7b300e5
:1007ac0001487800c081200051c7b300014878008f
:1007bc00d081200051c6b300014878003e40900023
:1007cc0062c2b30082404000e08120000148780002
:1007dc002e0090000000e8006181200052c4b3009c
:1007ec00827078002e0090000080e800618120006b
:1007fc00e2c4b300827078002e00900063004000c9
:10080c006181200042c4b300827078000080fa003d
:10081c00000006000600fa002047980031479800b7
:10082c00220798000000eb00000f78002e019000ca
:10083c00be4090002e409000a1ff0700a0c12000f8
:10084c001e0140002e0090001e005000e4004000ed
:10085c00608120001e0040002e010700000f780070
:10086c002e009000640040009e0f5000f3ff3e00ed
:10087c000080fa00000006000000fa0010c0b3006f
:10088c0008e8b7000080fa00000006000000fa003b
:10089c0010c0b30009e8b7000080fa0000000600a1
:1008ac000000fa0010c0b3000ae8b70070348000f2
:1008bc004400de00614060000004a2006140600062
:1008cc000080fb00610060004400dd00713480009a
:1008dc000140a10001007000703488007034800069
:1008ec004300de00614060000004a2006140600033
:1008fc000080fb00610060004300dd00713480006b
:10090c000130a10001007000703488000080fa00f2
:10091c00000006000000fa004402070020442000fa
:10092c0071010700c04420007d01070060452000d4
:10093c00b80107008ea6a9008e86a9008e66a800b5
:10094c00010037000000000008c8bf000004e000f0
:10095c002c003200260037000ac8bf000004e0005b
:10096c00230032000a68ef0004c8bf000080fb00bf
:10097c000000e90080004000a03428000080400006
:10098c0010017800418020009140780006c8bf001b
:10099c00a0ff0700604080000000e8006040880075
:1009ac0004c8bf000040e80004e8b70004c8bf005a
:1009bc00ee4f50000200360010c0b30004e8b70040
:1009cc00d03380004400de00614060000004a200cf
:1009dc00614060000080fb00610060004400dd00ad
:1009ec00d13380000140a10001007000d033880099
:1009fc00604080000000e000d7ff32000c28ef00c0
:100a0c000868ef0009c8bf000004e000cdff320009
:100a1c00260037000ac8bf000004e00023003200a3
:100a2c000a68ef0005c8bf000080fb000000e90069
:100a3c0080004000a03428000080400010017800a5
:100a4c00518020009140780007c8bf0071ff07005b
:100a5c00604080000000e8006040880005c8bf00ce
:100a6c000040e80005e8b70005c8bf00ee4f500095
:100a7c0002003600b0c0b30005e8b700d0338000e8
:100a8c004400de00614060000004a2006140600090
:100a9c000080fb00610060004400dd00d133800069
:100aac000140a10001007000d0338800604080003c
:100abc00e70f5000d7ff36000c28ef000968ef0055
:100acc00a1ff37000000fa000001200090208800f0
:100adc001424ef001824ef001004200000218800db
:100aec002424ef002624ef002824ef002a24ef0012
:100afc0010022800802088000080fa000000060008
:100b0c000400fa00000f78001107980000000000a4
:100b1c00c0208000620060000000e000fcff3a0092
:100b2c001e007800104078000080fb00e020880058
:100b3c0000000000c1208000000220000080600046
:100b4c000000e000fbff3a00e020800080407800cd
:100b5c001e009000014878000080fa00000006009a
:100b6c001800fa00100f9800210f9800320f98000f
:100b7c000000eb00000f78000000eb00100798005d
:100b8c000000eb00700798000000eb00000f9800cd
:100b9c0010002000600798001e0890000000e00084
:100bac0005003a000000eb00500798007000470069
:100bbc002007980004003700ee00900051079800c1
:100bcc009e089000210798003e0890000000e0006d
:100bdc0005003a000000eb00400798006e0047004b
:100bec003007980005003700ee0090004107980090
:100bfc00be0890003107980000000000c020800063
:100c0c00620060000000e000fcff3a001d003700ad
:100c1c00c0208000620060000000e00009003a0083
:100c2c002e009000104078000080fb00e02088002f
:100c3c00ae0090005e0090000080400020079800fd
:100c4c001e0fe800c1208000000220000080600020
:100c5c000000e0000b003a00e020800080407800ab
:100c6c003e00900001487800be0090004e009000bd
:100c7c0000804000300798001e0090000000e80043
:100c8c00100798002e0890009e007800808f50006e
:100c9c00dfff390010003700c12080000002200067
:100cac00008060000000e0000b003a00e0208000b3
:100cbc00804078003e00900001487800be00900013
:100ccc004e00900000804000300798001e009000fd
:100cdc000000e800100798009e0090002e0890007d
:100cec00808f5000ecff39001e0078000080fa0065
:100cfc00000006000400fa00204798000e80e8006f
:100d0c008e0078007eff07001e4078000080fa00fd
:100d1c00000006000600fa00000f7800110798008a
:100d2c00220798002e0190009e0090001e00780073
:100d3c008bff07000080fa00000006000000fa009c
:100d4c008120800000802000008060000000e00016
:100d5c0002003200200020000800370081208000b3
:100d6c0000402000008060000000e0000200320023
:100d7c0010002000010037000000eb000080fa009a
:100d8c00000006000000fa00c02080000080fa007d
:100d9c00000006000000fa006626ef0000012400a7
:100dac00d0338800800320007034880040f927007d
:100dbc0010338800d0fe2b00b0338800703c20002c
:100dcc00503488007426ef008826ef009c26ef0034
:100ddc007226ef008626ef009a26ef006826ef00b9
:100dec007c26ef009026ef00400020005033880056
:100dfc00c0202f00f0338800700020009034880051
:100e0c0001088000f00b20000081600060042000cd
:100e1c00710520000310200080497800814978007a
:100e2c0082497800713f800000f82f00008060003c
:100e3c00c000b300703f8800a13e8000f00f280076
:100e4c008080600000a0200001007000a03e88009f
:100e5c00e13d800000fc2f0000806000e03d880038
:100e6c00713f8000f00f28008080600000b02000ef
:100e7c0001007000703f88000008800000017800bd
:100e8c000260a00060042000710520000310200007
:100e9c008049780081497800824978006f46a80023
:100eac006ee6a8007146a90070e6a9005fe6a800ee
:100ebc00e07620000c0007004077200018000700a7
:100ecc008a60a9009a60a8000080fa000000060061
:100edc000000fa000080fa00000006000000fa0092
:100eec000080fa00000006000200fa00000f7800f3
:100efc009a60a9009e007800714088009a60a80052
:100f0c000080fa00000006000200fa00000f7800d2
:100f1c001e007800f4ff07000080fa0000000600b5
:100f2c000200fa00000f78009a60a9009e00780079
:100f3c00814088009a60a8000080fa00000006003a
:100f4c000200fa00000f78001e007800f4ff070082
:100f5c000080fa00000006000000fa009021ef006b
:100f6c0040e82100900c880000032800a00c8800a9
:100f7c00a04080000000e00002003a00a0802000a9
:100f8c00240007008860a9009860a800e0032100f5
:100f9c008040eb00014878000080fa000000060059
:100fac000200fa00000f78009e007800910c880077
:100fbc00e00321008040eb00014878000080fa003b
:100fcc00000006000000fa00900c80000080fa007f
:100fdc00000006000200fa00000f78009e00780066
:100fec00810c8800e00321008040eb000148780070
:100ffc000080fa00000006000000fa00800c80005f
:10100c000080fa00000006000000fa000080fa00e0
:10101c00000006000200fa00000f78009860a9009a
:10102c009e007800a14088009860a8000080fa001b
:10103c00000006000000fa00e00321008040eb00f5
:10104c00014878009860a80095e1a8000080fa009b
:10105c00000006000000fa0095e1a9009860a900c4
:10106c000080fa00000006000200fa00e0032100f4
:10107c00104f78001e4078000004e000030032009e
:10108c00e00321008040eb00014878001e4078000e
:10109c000080fa00000006000000fa00f0032100b6
:1010ac00104078000080fb000080fa000000060071
:1010bc000000fa00f00321008040eb0001487800aa
:1010cc000080fa00000006000000fa000000230077
:1010dc00100888000621ef006821ef006a21ef005c
:1010ec000821ef0000702000500888000c21ef0050
:1010fc000e21ef007821ef007a21ef007c21ef0028
:10110c007e21ef008021ef008221ef008421ef008f
:10111c008621ef000001eb0080072000a1092000d0
:10112c0013102000804978008149780082497800aa
:10113c000001eb006004200071052000031020006a
:10114c008049780081497800824978000080fa0053
:04115c000000060089
:020000040000fa
:101160001e10000020000000800000001208000097
:101170000200000082000000ffff00000e080000d7
:1011800004000000800000003e100000020000008b
:101190008000000014080000020000008000000031
:1011a0001608000008080000800000000808000081
:1011b0000600000080000000000800000800000099
:1011c000820000000404040004010b0054740000b9
:0411d000000000001b
:020000040000fa
:1011d4000000fa0081058000f0ff28000080600014
:1011e40000c0a0008005880041058000f0ff2800b1
:1011f4000080600000c0a000400588000080fa0064
:10120400000006000200fa00000f78009e0078003b
:1012140091408800ffff37000000fa00e001210040
:101224008007780060032100000188000080fa0034
:10123400000006000000fa00d8fe0700e4ff0700e3
:10124400a3ff070021fe070045ff07000080fa0006
:041254000000060090
:020000040000fa
:020000040002f8
:04be0000ffffff0041
:020000040000fa
:020000040002f8
:04be2000ffffff0021
:020000040000fa
:020000040002f8
:04be300078ffff0098
:020000040000fa
:020000040002f8
:04be3800b7ffff0051
:020000040000fa
:020000040002f8
:04be40009fffff0061
:020000040000fa
:020000040002f8
:04be4800ffffff00f9
:020000040000fa
:020000040002f8
:04be5000deffff0012
:020000040000fa
:020000040002f8
:04be5800ffffff00e9
:00000001FF
